:0200000260009C
:104000000000012021420600794206007B420600A2
:104010007D4206007F42060081420600000000004B
:1040200000000000000000000000000083420600C5
:104030008542060000000000874206008942060013
:104040008D4206008F42060065700600934206000E
:104050006576060097420600994206009B420600DC
:104060009D4206009F420600A1420600A3420600B0
:10407000A5420600A7420600A9420600AB42060080
:104080006DBD060005600600B1420600B3420600A1
:10409000B5420600B7420600B9420600BB42060020
:1040A000BD420600BF420600217C0600C342060056
:1040B000C5420600C74206008B4206008B4206003E
:1040C000C9420600CB420600CD420600CF420600A0
:0C40D000D1420600D3420600D542060093
:1040DC00314932480A1A02D0072291438D463049A1
:1040EC0030480A1A06D00722914381F3098802222C
:1040FC0082F314882C482D492D4A00F03CF82D48A9
:10410C002D492E4A00F037F82D482E492E4A00F042
:10411C0032F82E482E492F4A00F02DF82E482F4900
:10412C002F4A00F028F82F482F49304A00F023F886
:10413C002F483049304A00F01EF8304830490022F0
:10414C0000F024F82F483049002200F01FF82F4AC5
:10415C0090471F481F49884205D00268043003B4B9
:10416C00904703BCF7E700208646EC460020002170
:10417C00274A9047FEE7884207D0521A05D00378A9
:10418C0001300B700131013AF9D17047884202D0ED
:10419C0002700130FAE770470000012000F800209F
:1041AC0000000120000001203CF5060074000020F6
:1041BC0008010020D8420600D8420600ACC1060017
:1041CC003CF50600740000207400002000C30600BB
:1041DC0000C3060000C3060000C3060000C30600AF
:1041EC0000C3060000C3060000C306003CF5060031
:1041FC00D0F506000801002008010020080100206D
:10420C00E8460020E8460020E8460020454206002B
:10421C009D7E06000F484FF00701884385460E48E7
:10422C0080470E48016841F470010160BFF34F8F65
:10423C00BFF36F8FFFF74CBF09480A490A4A8842FF
:10424C0007D0521A05D0037801300B700131013AB6
:10425C00F9D1704700000120E58D060088ED00E0E3
:10426C0094C206000800002074000020FEE7FEE760
:10427C00FEE7FEE7FEE7FEE7FEE7FEE7FEE7FEE70A
:10428C00FEE7FEE7FEE7FEE7FEE7FEE7FEE7FEE7FA
:10429C00FEE7FEE7FEE7FEE7FEE7FEE7FEE7FEE7EA
:1042AC00FEE7FEE7FEE7FEE7FEE7FEE7FEE7FEE7DA
:1042BC00FEE7FEE7FEE7FEE7FEE7FEE7FEE7FEE7CA
:0C42CC00FEE7FEE7FEE7FEE7FEE700BFAE
:1042D8007047000007B5044B0093044A402300F0E0
:1042E80032F803B05DF804FBF9420600090100202A
:1042F8002DE9F84389461446B2B10F4B0F4E0325FA
:10430800002743F00108224609EB0701002006F0C8
:10431800FDFF0744241A48B933782BB14FF47A408B
:10432800C047013D02D13570BDE8F88301233370E1
:10433800002CE8D1F8E700BF00C306000801002000
:10434800704707F017B8F0B595B01C4616460846F2
:104358000D4602F09EFB1A9B0D93CDE908640024DC
:104368002346082205A928460A948DF82C400C9467
:1043780002F0A9FB079B0293069B03939DF8143058
:104388008DF8114003F00302012A1DD1BDF8144035
:10439800059EC3F3C203C4F383148DF81030A20042
:1043A80008230EA9284602F08EFBC6F3952608AB13
:1043B8000093224602AB0EA9304600F093FC284633
:1043C80002F06BFB15B0F0BD022AF8D1BDF816401B
:1043D800C3F3C203A4098DF810300827082C264619
:1043E80028BF08263B4632460EA9284602F06BFB3A
:1043F800A41B08AB02AA31460EA8374400F0D6FC2D
:10440800002CEBD1DBE70000014B01221A7070474A
:104418008A0100207047000070B50E4D06460FCD8A
:1044280088B06C460FC495E80F00002E84E80F0092
:104438004FF00903084A0948009308BF002269465B
:1044480002F0A4FD08B101F0C7F9054B1E7008B0D1
:1044580070BD00BF14C3060011440600740000209C
:104468004901002008B5044802F0ECFF0020BDE82F
:104478000840FFF7D1BF00BF7800002007B5044B04
:104488000093044A4023FFF75EFF03B05DF804FB86
:10449800A14406004A01002010B5084C0848002332
:1044A800D2B2237003F024F808B101F095F9054B56
:1044B8001A7812B12378002BFBD010BD8A01002096
:1044C80078000020490100200120FFF7A5BF000067
:1044D80008B5FFF736FF04210D4800F071FB0028EE
:1044E80003DA0C49412001F093FD094B01225A726D
:1044F800FFF7EAFF0421084800F062FB002803DA0E
:104508000449482001F084FD034B01225A7208BD7A
:104518008000002040C306008C00002008B5037806
:1045280013F0030F03F0040202D012B9104608BDBD
:10453800DAB103F00303012B07D0022B0ED00E498A
:104548004FF4A47001F064FD06E00A6800880232A6
:10455800C0F3831002440A600120E8E70B68428830
:10456800023303EB92130B60F6E70B6842880133C2
:1045780003EB92130288F4E7DAC306002DE9F04F43
:10458800044687B0851C00200F46904601F0A6FB24
:10459800484806683E60D0E90132134401339B1B4A
:1045A800454E8246A6F10409A6F10807AB421AD384
:1045B8000022B8F1000F76D0052363F3070264F3F5
:1045C8008912DAF80010DAF808300B4003330D448A
:1045D8004AF823200020CAF8005001F08FFB012080
:1045E80007B0BDE8F08F0121304601F0DCFD4846F8
:1045F80001F0F2FD384601F0EFFDDAF80400DAF8D0
:1046080008B0029000EA0B0003300AEB800002A910
:10461800FFF784FF03460298002BF3D10BEA000250
:104628000AEB820200F1020CD2680392013000EA20
:104638000B0B0AEB8B0B02F00302012ACDF808C022
:10464800DBF80C1026D0022A08D01C4901934FF43D
:10465800C27001F0DDFC019B9B4608E0BDF80E200E
:10466800920903320CEB92024FEA114B0292384640
:1046780001F0B5FD10B1029BCAF804305946304626
:1046880001F091FDDAE901231344DAF8002001333F
:104698009B1A8BE7BDF80C30C3F3831363444FEACE
:1046A800114B0293E3E7062363F3070264F39F5277
:1046B80087E700BF5C02002078120020DAC30600FA
:1046C80008B5104B104840F2FF3241F218019A60C9
:1046D80000225A5041F21401C3E900225A5003F54E
:1046E80081531A7002F08EF938B9084A084B094903
:1046F8009B1ADB0802469A4200D108BD21F8222005
:104708000132F8E75C02002064C20600B4C106006A
:1047180064C206001C00002030B50A4C71B10A4A78
:104728000A49121BD20800239A4201D1002030BD49
:1047380031F82350854202D00133F5E7034654F897
:104748003300F4E7B4C1060064C206001E0000206E
:10475800094B013903EBC000032909D8DFE801F050
:104768000A020406042070470079704740797047B0
:104778000020704702207047B4C10600034BD3E9FC
:104788000030C31A58425841704700BF5C020020ED
:104798002DE9FF47FFF7F2FF0646002840F0F480B6
:1047A8007A4D41F21803E850BFF34F8F6868AC6840
:1047B80000902040033005EB80006946FFF7AEFE0D
:1047C800009B0746002861D104EA0302991C0133C3
:1047D80005EB8202234005EB8303D268DB68029372
:1047E80002F00303022B0192009164D1BDF8063058
:1047F80067484FEA9319B9F1500FCA4628BF4FF0DE
:10480800500A6AF38F130AF10801ADF8063002F076
:1048180011F98046002800F0A48002F03AF901A9B5
:104828003B460822404602F047F9009924EA01066F
:104838000136B600B24537D95FFA8AFA8EB3F6B2B6
:10484800AAEB060A214003315FFA8AF4B246514EB8
:1048580005EB810108235246404602F02DF936B196
:104868000AF1080322463146404602F025F9009B2A
:1048780009F1030903EB9903009341F21803EB587C
:10488800002B4BD141F21003EC5858E02A689A42A9
:1048980004D86A60304604B0BDE8F08704EA030033
:1048A80088E73C493446D5E721400331082352467E
:1048B80005EB8101D8E7012B53D1BDF8043034480A
:1048C800C3F38311062928BF062161F38913023136
:1048D8008900ADF8043002F0ADF88046002840D0D9
:1048E80002F0D7F83B46082201A9404602F0E4F856
:1048F800BDF80420C2F38312BB00974203F10803FA
:10490800BBD200994A1C21400331009205EB81017A
:104918000422404602F0D0F80137E9E7404602F0A9
:10492800BCF8FFF72BFF80F00100C6B2B2E7637A4C
:1049380023B1236841461B68204698476468002CC9
:10494800F5D1404602F0A9F8204601F0C7F941F236
:104958001803EB580BB9009B6B60002001F0CEF9EF
:10496800DFE741F21003EC5844B90B4B0B491888A8
:10497800000440F0020000F07FF8D2E723682046E8
:104988009B6898476468EFE7002683E75C0200208D
:1049980064C20600680200202C0000206CC40600D7
:1049A8002DE9F74F2E4D80460F46914601A9012269
:1049B80018461E46D5F808A0FFF7E0FD00283CD0B1
:1049C800019C0023A01CB34203EB00013FD100214E
:1049D800244801F0B2FB80F3100B234B234A4FEA23
:1049E80018499B1AB9EBD30F04D3214940F2A910F7
:1049F80001F00EFB631C03EA0A0305EB830349EA93
:104A08000B42DA6004EA0A03033315F8232068F33B
:104A1800C50205F8232035F8232066F3891225F806
:104A2800232055F8232067F39F2245F8232002F01E
:104A3800F80242F0010205F823200E4B1B781BB147
:104A4800FFF7A6FE0028FBD103B0BDE8F08F0AEA05
:104A5800010105EB810159F82320CA600133B2E74F
:104A68005C0200207812002064C20600B4C106006F
:104A7800DAC306007C12002000231A46FFF790BF15
:104A880007B50123019201AAFFF78AFF03B05DF879
:104A980004FB07B5CDE9002302236A46FFF780FF30
:104AA80003B05DF804FB1FB5CDE90123069B039312
:104AB80001AA0323FFF774FF05B05DF804FB1FB5D7
:104AC800CDE90023069B0293079B03936A460423C0
:104AD800FFF766FF05B05DF804FB7FB5CDE901235C
:104AE800089B0393099B04930A9B059301AA05233A
:104AF800FFF756FF07B05DF804FB00002DE9F34708
:104B080080462C4CD01C8A46174601A900228008F2
:104B1800A568FFF733FDC8B3DDF80490A66809F16E
:104B28000200019001362840361AB6000330B74219
:104B380004EB800034D83A46514607F085FA002144
:104B48001D4801F0FAFA80F3100009F101032B4027
:104B580004EB83034FEA184242EA0042DA6005EAAE
:104B68000903033304EB830214F8231068F3C50127
:104B780004F82310518867F38F11518034F82320EB
:104B880002F0380242F0020224F823200B4B1B7873
:104B98001BB1FFF7FDFD0028FBD102B0BDE8F0878F
:104BA8003246514607F050FABA1B0AEB060104F1E7
:104BB8000C00C2E75C020020781200207C12002062
:104BC80041F210030E4930B5CC580023224642B9B1
:104BD80041F2100503724C5944B9485142601846D5
:104BE80030BD157A9D4205D05268F0E76268426090
:104BF8006060F4E701330A2BE8D14FF0FF33EEE7AA
:104C08005C02002038B541F21002084B9C5803F5AD
:104C18008152012313701D4604B938BD236865729B
:104C280020465B6898476468F6E700BF5C0200208E
:104C3800037A052B10B50C460FD0437A23B1084AE6
:104C48000849204601F06EFB0749204601F06AFB3F
:104C58002046BDE8104001F053BB002AF8D0F3E726
:104C6800C7C40600CCC4060091DE0600C38873B52D
:104C780004460D4633B1144A00921449144A284692
:104C880001F050FB217A05291CD0637A4BB1A0882A
:104C9800FFF75EFD0F4B104953F82020284601F01E
:104CA80041FB227A0D4BA08853F822600021FFF7C0
:104CB80033FD0B4903463246284602B0BDE8704032
:104CC80001F030BB02B070BDC7C40600D7C40600EF
:104CD800CFC4060094C40600CCC40600FCC4060079
:104CE800EFC406002DE9F04385B01F460C9D002354
:104CF80006460C46904695F80C902B732946384684
:104D0800FFF7B4FFB8F1060F09D8DFE808F004127E
:104D1800181F283340003146284601F003FB0022C3
:104D280029463846FFF784FF85F80C9005B0BDE8A2
:104D3800F08322683146284601F0F4FAEFE7D4E917
:104D480000233146284601F0EDFAE8E7A36800930E
:104D58003146D4E90023284601F0E4FADFE7E368A6
:104D68000193A36800933146D4E90023284601F053
:104D7800D9FAD4E723690293E3680193A3680093FF
:104D88003146D4E90023284601F0CCFAC7E7636925
:104D9800039323690293E3680193A3680093314660
:104DA800D4E90023284601F0BDFAB8E708292DE91F
:104DB800F84F80460E4617461C4636D8002593F80D
:104DC8000C901D7319461046FFF750FFDFF87CA0C2
:104DD800DFF87CB0AE422AD918F80520594620469B
:104DE80001F0A0FA0135082DF4D11649DFF864B0B6
:104DF800204601F097FA0025AE421DD918F805A003
:104E0800504607F0E1F8002814BF52462E225946B2
:104E1800204601F087FA0135082DEDD101222146FF
:104E28003846FFF705FF84F80C90BDE8F88F514627
:104E3800204601F077FAD5E70349204601F072FAD7
:104E4800E9E700BFC2C40600C0C40600BEC406002D
:104E5800B8C40600C4C4060043689B68184770B508
:104E6800466804460D46FFF7F7FFB279294604F174
:104E7800080007F0E9F8002070BD0023C0E90232FD
:104E8800C0E900118B781A44026191F903301A4481
:104E980042610878003018BF0120704738B5426871
:104EA80011780346002938D002F10C014160147BC7
:104EB8002CB9C2680168FFF7E0FF204638BD50787A
:104EC800117900F03005302D14D1547B04F03004F2
:104ED800302C1CD190781969091A19610021907B2E
:104EE800084419690144196192F90F201144596164
:104EF8000120E3E700F0F004202C08D1507910FBE2
:104F080001F1002DEBD1986801309860E7E700F0D7
:104F1800C000802808BF0421F3E70846CEE770B533
:104F2800456804460E4663681A78B24204D15B7835
:104F380003F00F03082B07D12046FFF7AFFF636884
:104F4800AB42F0D1002070BD0120FCE743681A4451
:104F5800426011B101399A4201D10120704713F81A
:104F6800010B01F8010FF6E783682DE9F3410446C8
:104F7800884623B90027384602B0BDE8F0810368A7
:104F880001220DF10701984707460028F2D0A368CF
:104F98009DF80750013B2A06A3601AD505F07F0546
:104FA8000726A368002BE5D0236801220DF107012D
:104FB800204698470028DDD0A3689DF80720013BCC
:104FC800A36002F07F03B3401D43130606F10706F2
:104FD80002D4C8F80050CEE7232EE2D1CAE770B554
:104FE80045686A7802F00F06082E86B003461FD17E
:104FF80003691C6800260CB906B070BD2368626896
:105008009D68267329466846FFF737FF636804934F
:1050180004F10C0305936B7803F0C003802B08BFE1
:10502800231D684608BF0493FFF7D9FFA468E2E789
:1050380012F0C0011CD102F0300010280AD15A69C0
:105048001170072EAC68186909D10146204600F096
:1050580017F8D1E79006F4D55B691970CCE72A797F
:10506800214614B106F0F0FFC6E707F016F8C3E7CB
:105078008029C1D10069002192060160BCD5EBE707
:105088007FB50A4601466846FFF7F7FE30B1684625
:10509800FFF7A5FF6846FFF701FFF7E707B05DF8E0
:1050A80004FB000030B5044685B01546A9B902686E
:1050B800114B9A4211D0102D06D82A46694620462F
:1050C800FFF7F0FF05B030BD102269462046FFF714
:1050D800E9FF0028F6D0103DEDE7A368AB4201D206
:1050E8000020EFE723682A46204698470028F7D093
:1050F800A3685D1BA560E5E7554F0600F7B50E46AA
:1051080001A907461546FFF72FFFA8B1019A012309
:10511800D3184FF0000404D2717801F0C00180293F
:1051280001D1204608E031799942FAD32946384618
:10513800FFF7B8FF019BEC5403B0F0BD73B50D4603
:1051480001A906461446FFF70FFF90B1019AFF2AFE
:1051580011D86B7803F0C003802B02F101010AD04B
:105168002B798B4207D32146304601F8012BFFF7F4
:1051780099FF02B070BD0020FBE7000010B5034C9A
:1051880082600022C0E90041C26010BD554F060090
:105198002DE9F3470025064688462F462C46B36876
:1051A80043B3336801220DF107013046984708B32D
:1051B800B3689DF807C0013B0CF07F025FFA82F9E3
:1051C800C4F12001B360A4F1200309FA03F329FA1A
:1051D80001F109FA04F20B431CF0800F45EA0205BD
:1051E80047EA030704F1070402D1C8E9005702E0BF
:1051F800462CD4D1002002B0BDE8F08773B50C4628
:1052080069461646FFF7C4FF68B12379082B0CD10D
:10521800DDE90045C6E90045DDE90023AB4206BFEC
:10522800A2420120002002B070BD042B04D1009BD3
:1052380033601C460025EFE7022B4FF0000004D135
:10524800009B33809CB20546E6E7012BEBD1009B1F
:10525800337003F0FF04F6E737B50D466946144688
:10526800FFF796FF30B12A79082ADDE9003103D12A
:10527800C4E9003103B030BD042A18464FEAE3718F
:1052880008D123601A460B468B4206BF8242012092
:105298000020EFE7022A04D11BB223801AB2D317E9
:1052A800F2E7012A03D15BB223705AB2F7E7002074
:1052B800E0E7F7B50C46002119702170116001A9CB
:1052C800074615461E46FFF74FFE30B9BB6813B9AF
:1052D80001233370002003B0F0BD01990029F7D0F5
:1052E800CB0801F007012B602170F4E713B50446E1
:1052F80005291FD8DFE801F0030F151E1E1C012227
:1053080001A92046FFF7CEFE18B19DF90430002B05
:10531800F5DB02B010BD082200212046FFF7C2FECF
:10532800F7E701A9FFF720FE0028F2D0019AF3E77A
:105338000422F1E70020ECE773B50D4601A9044605
:10534800FFF712FE064618B90026304602B070BDB7
:1053580094E80F0085E80F0001998A42F4D3A96008
:10536800A3685B1AA360F0E72DE9F04355686B78F2
:1053780013F0C00489B006468C46174603D0402C6B
:1053880067D000240AE003F00F025D4903F0300300
:10539800102B51F822801BD004D8E3B1204609B065
:1053A800BDE8F083202B1BD0302BF7D17B692978FF
:1053B8001970072A0AD17B6838691A79214606F0DC
:1053C8006CFE7B6839699868FFF75AFE3A693DE0D8
:1053D8007B6901221A703A692946C0470446DDE70D
:1053E800BCF1020FD7F8149024D1042A22D804A9BA
:1053F800FFF7A2FF04460028C3D0069B2BB17968AB
:1054080099F800304A799A4205D8059B7360069B43
:10541800002BC3D0B5E708793A6900FB032204A83A
:10542800C04728B199F80030013389F80030E4E723
:105438000446EAE799F800306A799A42A1D93A69AC
:105448002979581C89F8000001FB03227968304645
:10545800C3E7D2F81080454655F8043B13B9FFF767
:1054680045FFBBE7022914D104A9FFF765FF00280F
:1054780087D0D8F8003079682A4604A898470446A7
:1054880000283FF47EAF069B002BF2D1059B73608A
:1054980084E701292BD04CB24CB105297FF471AFB8
:1054A80004220DEB0201FFF7FDFD042424E00DF1B9
:1054B800040901340B2C3FF464AF012249463046FD
:1054C800FFF7F0FD00283FF45CAF19F9013B002B12
:1054D800EFDB0C4B049301ABCDE9053400230793B4
:1054E8002A46D8F80030796804A8984776E7082251
:1054F80001A9FFF7D7FD08240028EAD141E700BF3A
:1055080070C50600554F06002DE9F04F91B00446CE
:10551800002604A8CDE90266FFF7AFFCA3683BBBF1
:10552800DDE9053404A85D78FFF7B8FC0028F7D159
:1055380015F0300F03D1059B1B7803B10134002C03
:1055480000F0A9806309002202A9934240F09C80E0
:1055580010AA02EB830304F01F04C4F120044FF0E7
:10556800FF3053F8383CE040C31A584258410DE028
:105578000DF1030301AA0DF102012046FFF799FE80
:1055880038B99DF80330002BCAD1002011B0BDE80E
:10559800F08F019904A8FFF7C2FC002850D1019BA5
:1055A800B3427DD3059D059A537803F00F03082B6A
:1055B8007FD004A8FFF772FC059B9D42F3D14FF002
:1055C800FF36019FB7426BD3089B9DF80290D4F831
:1055D80008801D684FF0010AA368002D5DD098452A
:1055E8009CD12B68D3F800B0BBF1000F08D04B4614
:1055F8003A4629462046D8470028C6D0AD68EBE78A
:10560800D3F808B09BF800309F42F7D16A68594632
:105618000AA8FFF732FC6B680E9305F10C030F9391
:105628009BF8013003F0C003802B04BF2B1D0E93A1
:105638000AAA85F80CA049462046FFF795FEDBE745
:10564800059B5B7813F0300F0FD1069A3F2A0CD8D0
:10565800510910AB03EB810102F01F0201239340B3
:1056680051F8382C134341F8383CE5682DB104ABA8
:105678009DF8022001992046A84704AA9DF8021027
:105688002046FFF771FE10E051F8225001357FF4F3
:105698007DAF013259E7012078E798457FF43EAFA6
:1056A8009DF802102046FFF721FE00287FF436AF50
:1056B8006BE7167885E770B50C4606461546114621
:1056C8002046FFF7DDFC2A4621463046BDE87040FB
:1056D800FFF71ABFF0B585B00C468D6869460746D6
:1056E8001646FFF729FE68B1A06858B1637803F041
:1056F8003003202B32462946684605D1FFF7DBFFE9
:10570800019B7B6005B0F0BDFFF7FEFEF8E7D3B55F
:105718000C466946FFF73CFD80B1DDE90013002720
:105728004A0801F0010642EAC37256EA07014FEA45
:1057380053031CBFD243DB43C4E9002302B0D0BDEE
:1057480037B50D4669461446FFF7E1FF68B12B7976
:10575800082B0CD1DDE90001C4E90001DDE90023D3
:105768008B4206BF82420120002003B030BD042BCB
:1057780003D100982060C117F0E7022B04D1BDF9CE
:105788000000208000B2F6E7012B04D19DF900004B
:10579800207040B2EFE70020E7E713B504220C467B
:1057A8000DEB0201FFF77EFC08B1019B236002B0FC
:1057B80010BD1146FFF7F1BF13B508220C46694624
:1057C800FFF770FC18B1DDE90023C4E9002302B03B
:1057D80010BD1146FFF7F0BF1FB50021039001AAC5
:1057E80044F20100CDE9011102F01AFB05B05DF8A1
:1057F80004FB00004B1C30B5DB00044612F003002C
:105808009BB20DD1074D2A601A44074B1A60074B0B
:105818001870074B1870074B1C80074B198030BD58
:105828000720FCE788120020841200208012002044
:10583800901200208C1200208E1200202DE9F047D3
:10584800284D2B888B4206460C46174645D3002028
:1058580000F044FA244B254A254819781378008823
:10586800DBB2834238BF0133C9B234BFDBB2002395
:1058780099422CD092F800801378DBB2984286BF08
:105888000133DBB200231370002000F037FA4FF623
:10589800FF73984523D0DFF860A0DAF800304FEAAC
:1058A800C80903EB090243F838709EB194B1114B53
:1058B80028881B68224608FB0030314606F0C4FBE6
:1058C800DAF800304B4400209C80BDE8F0874FF6A2
:1058D800FF78D9E700209080F7E70920F5E7042052
:1058E800F3E700BF8C1200209012002080120020E5
:1058F8008E1200208412002088120020F8B5124C65
:10590800124D264622782B789A4200D1F8BD23788A
:105918000F48104A078812680F48DBB219B202EB29
:10592800C10C006852F83120BCF8041003FB0700D2
:1059380090470A4A23781288DBB29A4286BF01331D
:10594800DBB200233370DDE79012002080120020C4
:105958008C12002088120020841200208E12002051
:1059680040684B6898428CBF0020012070470000B7
:1059780037B505460C460A4801A900F069FB60B135
:105988000570446001A9064800F08CFB18B1054871
:1059980000F024FB002003B030BD0420FBE700BF6B
:1059A80098000020AC00002038B5C36804461BB935
:1059B8000F49872000F02CFB0E4B1D789DB1237EEC
:1059C80003F0FF057BB1D4E903309847A36863B1BE
:1059D800227E02F0FF0542B1626807481344636003
:1059E800214601F077F8284638BD00252576FAE7E4
:1059F800BCC506009812002094C506002DE9F7439F
:105A0800054600F0DDFA002848D10021284600F0BC
:105A1800DBFA38B1594C236823B12068FFF7C4FF7B
:105A28000023236001A95648DFF85081554EDFF85E
:105A3800609100F047FB0446002C4ED1514F4F4C6B
:105A4800DFF85081384601F071F8002800F08B80AB
:105A5800426823685B68216851B12168D9B19A42CC
:105A680019D223681B7E1BB12168384601F032F831
:105A7800384601F04BF84FF47A7306464268002125
:105A8800404600F031FA002862D1236813B928464D
:105A980000F00EFA266003B0BDE8F083374A1368B9
:105AA8002BB113685B68126823F07F435360354855
:105AB80001F03CF804460028A7D06368B3F1807F62
:105AC80006D22046FFF770FF204601F03BF8F1E7C9
:105AD800636823F07F436360F6E72378012B2AD0BD
:105AE8004BB1022B1DD10024304601F00FF80028DD
:105AF80040D00476F8E763681A7E92B901221A76D4
:105B080028465F6800F065FA381A484588BF626819
:105B1800616882BF536823F07F435360304600F0CA
:105B2800D9FF01A9164800F0F8FA01A9144800F0B5
:105B3800C9FA044680E7D8F800306168994208BF7E
:105B48000023304608BFC8F8003001F007F8E8E73E
:105B58000D2803D13046FFF727FF73E70A49C22013
:105B680000F056FA6EE72368002B94D1284600F01F
:105B7800ADF990E7054B01221A70D2E7F412002024
:105B88009800002094C50600BCC5060098120020A5
:105B980017FCFF00AC00002013B50023ADF804305B
:105BA80007238DF80630582208230B490B4800F0CC
:105BB8003CFA044668B90A4A0A4801A900F0F2F812
:105BC800044630B90121074800F0F6F9064B0122D6
:105BD8001A70204602B010BD9C12002098000020C8
:105BE800055A0600AC0000209812002070B50C463B
:105BF8001546064620B90A4940F2EB1000F008FAAB
:105C080035B94FF4F670064900F002FA072070BD66
:105C1800621E336854425441DD609C600020F6E700
:105C2800BCC5060070B50D461646044620B90C4999
:105C380040F2FB1000F0ECF90A4B9D420ED82661A9
:105C4800094800F0C6F9A3682844606003B1A5605C
:105C580021460020BDE87040FFF78ABE072070BDCE
:105C6800BCC5060017FCFF00AC00002010B50446B8
:105C780020B906494FF4047000F0CAF900232376CE
:105C880021460120BDE81040FFF772BEBCC50600E2
:105C9800014800F09EB900BFAC00002072B6024A6D
:105CA8001368013313607047F8120020034A136821
:105CB800013B136003B962B6704700BFF8120020B9
:105CC800EFF30583C3F308032BB9EFF31480C04344
:105CD80000F00100704701207047000008B5FFF789
:105CE800EFFF012803D00449432000F091F9BDE8F3
:105CF8000840FFF7D3BF00BF46C6060008B5FFF748
:105D0800DFFF012803D00449512000F081F9BDE8E4
:105D18000840FFF7CBBF00BF46C6060030B53AB112
:105D28001368DB430A4D0144814204D1D84330BD96
:105D38004FF0FF33F6E710F8012B5340082213F019
:105D4800010418BF2C46013A84EA5303F7D1EBE764
:105D58002083B8ED70B50C461646054618B90549B6
:105D6800DF2000F055F92B68C3F844430EB1C3F89F
:105D7800044370BDD5C7060037B50C46054618B9AB
:105D88000749F02000F044F92B68185928B100227F
:105D98001A511B590193019B012003B030BD00BF6C
:105DA800D5C706002DE9F84388461446054618B9B4
:105DB8003649552000F02CF9B8F1000F03D13349CA
:105DC800562000F025F91CB93049572000F020F979
:105DD8006B792F4A2F4E42F8234006EBC3032E4F10
:105DE8001B794BB138882D49000440F00200FEF7BA
:105DF80043FE0820BDE8F883B8F80040D5F80090C5
:105E0800B4F5805F04D3264940F2231000F000F96E
:105E1800C9F8084598F8028095F90440B8F1070FC9
:105E280003D920496B2000F0F3F8002CB6BF1E4BB5
:105E380004F1604404F00F044FEA48185FFA88F848
:105E4800AABF04F5614403F8048084F8008395F937
:105E58000430388803F01F025B099B0003F160439C
:105E6800012103F5614301FA02F2C3F880211A60A7
:105E78006B7906EBC3020004117140F003000B4973
:105E880046F83350FEF7F8FD0020B3E7D5C7060003
:105E980004130020FC12002030000020D6C60600A3
:105EA800F8C6060025C7060014ED00E054C7060032
:105EB80010B5044618B90449872000F0A9F82368EA
:105EC80001221A6010BD00BFD5C7060010B50446F0
:105ED80018B904498D2000F09BF8236801225A6004
:105EE80010BD00BFD5C706002DE9F3410D46174682
:105EF8001E46804618B92B49AC2000F089F805F1F8
:105F080050018900D8F8003089B24FF48034AC4091
:105F18000022C3F80843C3F848435A5003EB8505E9
:105F28005A58019227F07F47019AD5F84025C5F8BD
:105F38004075D3F80435D31A23F07F43012B0DD1D4
:105F4800194B1A491888000440F00400FEF794FD24
:105F5800174B4FF4046043F001039847D8F800103A
:105F6800C1F84443D1F80435F81A20F07F42000202
:105F780048BF42F07F42764296420EDA022A0CDC93
:105F8800094A0C491088000440F004003A46FEF71C
:105F980080FD0D2002B0BDE8F081C1F80443002067
:105FA800F8E700BFD5C706003000002066C7060026
:105FB800D0C6060097C706000A460221FFF7CABEE8
:105FC8004FF48271FFF7D8BE5031890089B2FFF7CC
:105FD800D3BE0368D3F804057047000090F9043075
:105FE80001215A0903F01F0301FA03F34032024961
:105FF80041F82230704700BF00E100E0024B034A3D
:106008001B681068184700BF04130020FC1200200A
:1060180007B5ADF8000001916A46002144F202007C
:1060280001F0FEFE03B05DF804FB10B561B1B2FBF0
:10603800F3F403FB1424A4B244B9C0E90014846047
:106048008281C381204610BD0E20FCE70920FAE7B3
:1060580037B550E8013F9DB2C48925448489A542DB
:1060680028BF2D1B0489A54202BFBFF32F8F002232
:1060780007E0C5EA030540E80154002CE9D14FF0D8
:1060880001028DF803200193019B9DF803200B600A
:1060980002F0FF0322B10B880068184403B030BD3A
:1060A8001846FBE70A884B889A4209D150E8012F25
:1060B800C2EA024240E80123002BF7D101207047D1
:1060C8000020704737B550E8023F1FFAA3F5C4888F
:1060D800A54202BFBFF32F8F00220DE0C4892544DB
:1060E8008489A54228BF2D1BC3EA054540E8025410
:1060F800002CE8D14FF001028DF803200193019B99
:106108009DF803200B6002F0FF0322B14B88006862
:10611800184403B030BD1846FBE70A884B889A42FA
:1061280009D150E8022FC2EA224240E80223002B9C
:10613800F7D1012070470020704750E8002F0B4628
:1061480040E8003C9CF0000FF7D11046704750E83B
:10615800002F42EA010340E8003C9CF0000FF6D112
:106168001046704750E8003F43EA010240E8002C1F
:106178009CF0000FF6D11046704750E8002F02EA55
:10618800010340E8003C9CF0000FF6D11046704730
:1061980050E8003F03EA010240E8002C9CF0000FA1
:1061A800F6D11046704750E8003F03EB010240E883
:1061B800002C9CF0000FF6D11046704750E8003FC5
:1061C800A3EB010240E8002C9CF0000FF6D110462A
:1061D80070470121FFF7BBBF0121FFF7C3BF0021B3
:1061E800FFF7CBBF0021FFF7D3BF000010B504466F
:1061F800002834D003681BB91A49FF20FFF708FFAD
:10620800636823B917494FF48070FFF701FFA3684B
:1062180023B9144940F20110FFF7FAFEE36823B9E5
:1062280010494FF48170FFF7F3FEA38A23B90D4993
:1062380040F20310FFF7ECFED4E9012321689B1A12
:10624800DBB20A60013BDBB2FF2B226802D10020DF
:10625800107110BD1168481C10600B70F2E70E2019
:10626800F7E700BF65C8060038B5044620B91149EC
:106278004FF49270FFF7CCFE0020FFF72FFD226845
:1062880063681168994213D9481E106011F8015CBF
:10629800E368A18A01FB0535A36811791B1ADBB2F3
:1062A800994200D213710020FFF728FD284638BD17
:1062B8000025F8E765C8060038B50C46054620B93C
:1062C8000E4940F24710FFF7A3FE24B90B494FF4DB
:1062D800A470FFF79DFE0020FFF700FD2A681368F1
:1062E800591C1160EA68A41AAA8AB4FBF2F41C705B
:1062F8000020BDE83840FFF701BD00BF65C80600B3
:1063080010B5044618B906493120FFF781FEA26886
:106318002AB163692168206998470023A36010BDEA
:10632800E3C806000EB433B5059D044618B91149F3
:106338004220FFF76DFE63691BB90E494320FFF742
:1063480067FE23681BB90B494420FFF761FE6368A9
:106358001BB908494520FFF75BFE35B106AB01AA1A
:1063680029462046019300F06FF802B0BDE830409E
:1063780003B07047E3C80600826830B40468551C4F
:106388008560A154D0E901329A4202D330BCFFF7AC
:10639800B7BF30BC704700002DE9F84F9946DDE9DA
:1063A8000A431746824688460A460126BA420FD251
:1063B8004E4538BF4E4613F0010B01D164B9002495
:1063C8000125B9F1010F1AD909F1FF397D43F8E721
:1063D800B2FBF7F20136E9E79B070ED5B9F1000FDA
:1063E8000CBF30252025A642EAD2013C294650465A
:1063F800FFF7C2FF002CF6D1E1E72025F3E7B8FB51
:10640800F5F39F42E2D9DFF83C90B8FBF5F350462C
:1064180019F8031005FB1388FFF7AEFFB5FBF7F378
:10642800BD4207D2BBF1000F02D00CB1A64203D384
:10643800BDE8F88F1D46E8E720215046013CFFF7EC
:106448009BFFF2E757C906002DE9F74F8846174624
:10645800054620B9A8494FF49F70FFF7D9FD6B692D
:1064680023B9A5494FF4A070FFF7D2FD2B6823B9D3
:10647800A14940F24110FFF7CBFD6B6823B99E4953
:106488004FF4A170FFF7C4FDB8F1000F00F03081A0
:1064980018F8011B49B92B7B002B00F029812846ED
:1064A80003B0BDE8F04FFFF72BBF252940F0C080AF
:1064B800002698F800302D2B424608F1010823D019
:1064C800302B24D02B2B25D000242A2B02F10101BC
:1064D80023D13B681A1D1B683A601C440A4613788E
:1064E8002E2B26D101324FF00009104610F8011B5F
:1064F800A1F1300CBCF1090F1DD80A2303FB0913C5
:10650800A3F130090246F0E746F00106D1E746F06C
:106518000206CEE746F00406CBE711F8013CA3F1EA
:1065280030000928DBD80A2202FB0434303C0A4632
:10653800CBE74FF0000912F8011B01F0FB006828B7
:106548009046F8D069290ED04AD8582964D006D880
:1065580025296DD098F80030002B99D19BE7632945
:1065680062D06429F6D13A68D2F800A0111D8AEAEF
:10657800EA723960A2EBEA724FF0010B092A5BDC80
:10658800CB4538BFCB462CB1BAF1000F01DB7207FF
:1065980000D5013CB30702D5B9F1000F04D0F007CC
:1065A80002D4002C4ED10024BAF1000F52DACAF1FD
:1065B800000A2D212846FFF7DFFE06F00302022A13
:1065C80005D1B9F1000F02D1002C47D10024CDE943
:1065D80000464B460A2251462846FFF7DDFEB9E73A
:1065E80073294CD014D87029B4D13B681A1D3A606D
:1065F800302128461C68FFF7BFFE78212846FFF7A0
:10660800BBFE00220823CDE9003221461022E3E731
:1066180075292BD078299DD139680A1D3A60CDE9B2
:1066280000464B46102228E03B681A1D19783A604C
:106638002846FFF7A1FE8DE70A230BF1010BB2FBF9
:10664800F3F29BE7A345AFD220212846013CFFF790
:1066580093FEA6E77107B0D52B21ABE7A345B6D2C9
:1066680030212846013CFFF787FEADE73968CDE9C0
:1066780000460A1D3A604B460A220968ACE73B68A7
:106688001A1D3A6016F00106D3F800A020D1BAF11D
:10669800000F03D0504605F055FD0646B44200D918
:1066A800C4B90AF1FF3A1EE028460136FFF764FE36
:1066B8001AF806100029F7D1A642BFF44BAF002CF8
:1066C8003FF448AF20212846013CFFF755FEF3E789
:1066D8000026EDE720212846013CFFF74DFEDDE7C7
:1066E8002846FFF749FE1AF8011F0029F8D131E7BB
:1066F80003B0BDE8F08F00BF67C9060070B50D464E
:106708001646044618B908495520FFF781FC1DB9FB
:1067180005495620FFF77CFC25602B68314620464A
:10672800BDE87040184700BFE2C906002DE9F041F6
:10673800DDF818800E4617461D46044618B922494A
:106748008820FFF765FC1FB91F498920FFF760FC07
:1067580023681BB91C498A20FFF75AFC45BB1A4914
:106768008B20FFF755FCB20703D017499120FFF79C
:106778004FFCBB0703D014499220FFF749FCE3689C
:106788009E4204D3731E22692B44934203D90E49B7
:106798009320FFF73DFC2368CDF81880D3F80CE070
:1067A8003A462B4631462046F446BDE8F04160475C
:1067B80063685A68B5FBF2F302FB1353002BD2D07F
:1067C80001498E20CDE700BFE2C906002DE9F0415E
:1067D8000D4616461F46044618B919499E20FFF76C
:1067E80017FC23681BB916499F20FFF711FC1EB937
:1067F8001349A020FFF70CFC63681B68013B2B4280
:1068080003D00F49A320FFF703FCE3689D4207D399
:1068180063681B686A1E03FB06232269934203D937
:106828000749A820FFF7F4FB2368D3F810E03246A5
:106838003B4629462046F446BDE8F041604700BF84
:10684800E2C9060070B508B10368ABB90C4D0D4C30
:106858000026641B1423B4FBF3F4B44201D10020D6
:1068680009E02B6813B901361435F6E7DB692846C9
:1068780098470028F7D070BDDB69BDE8704018471D
:10688800080000201C000020014B436000207047D6
:1068980074CA06000846704700207047024B186803
:1068A800003018BF012070470813002008B50248BF
:1068B800FFF798FC002008BD0813002008B5104613
:1068C8001A4605F0C1FB002008BD00002DE9F04381
:1068D800814687B014480F4616469846FFF779FC5C
:1068E8000446F0B90546AE4215D10F48FFF77AFCC9
:1068F800D9F808305BB102228DF800200022CDE9DA
:106908000127CDE90326CDF814806846984720462C
:1069180007B0BDE8F08307EB053000F067FB0135F1
:10692800E1E71124F3E700BF081300202DE9F04147
:10693800804686B011480F4616461D46FFF749FCAB
:106948000446C8B9AA083146384600F067FB0B4828
:10695800FFF748FCD8F8083053B101228DF8002021
:106968000C9A0592CDE90147CDE903656846984739
:10697800204606B0BDE8F0811124F9E7081300208D
:106988002DE9F84FB0F806A09DF828901746033275
:106998001C1D1A444379B4FBFAF55244B2FBFAF2CF
:1069A800D2B29342064688460AFB154403D21449DC
:1069B800BA20FFF72DFB3DB9AAEB040BBB4528BF56
:1069C800BB4627B9BDE8F88F3668013DF3E70434C4
:1069D80008EB050034445A46B9F1000F0DD02146A2
:1069E800A7EB0B0705F030FBBA455D443668D34684
:1069F8004FF0000428BFBB46E3E701462046EFE717
:106A0800A0CA0600FFF7F2BBF8B546790146721E28
:106A18000546002393422D6803D30024A64202D8DA
:106A2800F8BD0133F6E70F682846FFF745FC013447
:106A38003946F3E72DE9F843868ACD1C0746FFF768
:106A480013FC043E35440446B5FBF6F5F0B14FF4AB
:106A58008073EDB28380C680013D076081464FF0A8
:106A68000008A84512D23846FFF7FEFB064648B193
:106A780063790133637108F10108C9F80000076000
:106A88008146EEE72046FFF7BFFF34462046BDE8C3
:106A9800F88301210430FFF786BB10B501210446B5
:106AA8000430FFF78BFB10F0FF0F04D12046BDE840
:106AB8001040FFF7A9BF10BD13B500240094FFF7DD
:106AC8005FFF02B010BD13B501240094FFF758FF13
:106AD80002B010BD70B50D46064618B90A493A20ED
:106AE800FFF796FA1DB908493B20FFF791FA746839
:106AF800206818B1B3682946984718B923682B60ED
:106B0800256070BD2468F3E72BCB060010B504465A
:106B180018B905495120FFF77BFA6368186808B16E
:106B280002681A6010BD00BF2BCB060010B50446E2
:106B380018B903495D20FFF76BFA6368186810BD40
:106B48002BCB060010B5044618B903496320FFF79C
:106B58005FFA206810BD00BF2BCB060038B50C4685
:106B6800054618B90A496920FFF752FA1CB90849BD
:106B78006A20FFF74DFA6B68186820B1A04203D16C
:106B880002681A60012038BD03460068F5E700BFB7
:106B98002BCB06002DE9F04FC9B008AA01F140053A
:106BA80014464B780E781B0443EA0663CE783343C9
:106BB8008E78043143EA06238D4244F8043BF0D131
:106BC8001024916B16464FEAF14383EA714383EA36
:106BD8009123716A366852F8045F31440B444FEAD6
:106BE800B54181EAF51181EAD50101340B44402C05
:106BF800D363E6D1D0E914E30093836D0193C36DA9
:106C08000293036E0393436E0493836E0593C36EDE
:106C18000693DDE9057BDDE9031CDDE901592B4B12
:106C2800009E079374464FF00008079B53F8042B07
:106C380007934FEAF12383EAB11383EA716A08AB39
:106C480053F828301A440AEB020327EA010A01EA3A
:106C58000C028AEA02021A444FEA743A86EA0503E9
:106C68005A448AEAB40A06EA050B234083EA0B036E
:106C78008AEAB45A08F101089A44B8F1400F02EBC5
:106C88000903BB465244A94619D172440265009AC9
:106C980022444265019A32448265029A2A44C265B6
:106CA800039A1A44049B02660B444366059B63449B
:106CB8008366069B3B44C36649B0BDE8F08F6746D0
:106CC80035468C46264619461446AEE7B8CB06002C
:106CD80030B5E0B10F4A104900240025C0E912453B
:106CE800C0E914120D4C0E4A0E4DC0E916420E4A68
:106CF800C0E918520D4A826602F17452A2F52302C5
:106D08000023A2F692420364C266184630BD0E20E4
:106D1800FCE700BF85AE67BB67E6096A72F36E3CA5
:106D28003AF54FA57F520E518C68059BABD9831F4E
:106D3800F8B50446F0B10AB90020F8BDD1B10D4646
:106D48008E180027B542F7D0236C15F8012BE254B2
:106D58000133402B2364F5D121462046FFF71AFF63
:106D6800D4E9123113F5007341F10001C4E912317D
:106D78002764E7E70E20E0E770B50D46164604469F
:106D8800002877D0002975D0026C8021372A02F1BB
:106D9800010381544FF0000242D8382B3BD1D4E98B
:106DA8001223206C0821E1FB0023104612BAE2638B
:106DB8001A0A194684F83B3084F83A201A0C1B0E3C
:106DC800C4E9120184F83920214684F83830204675
:106DD800FFF7E0FE691E76B30023E26EDA4001F8A1
:106DE800012FA26EDA400A71626EDA400A72226ED0
:106DF800DA400A73E26DDA400A74A26DDA400A7565
:106E0800626DDA400A76226DDA400833202B0A7761
:106E1800E3D1002070BDE2540133BEE7E2540133F0
:106E28003F2BFBD921462046FFF7B4FE382200212C
:106E380005F033F9B3E71823226DDA4001F8012F82
:106E4800626DDA400A71A26DDA400A72E26DDA40C8
:106E58000A73226EDA400A74626EDA400A75A26E0C
:106E6800DA400A76E26EDA40083B13F1080F0A7737
:106E7800E2D1CEE70E20CDE7F0B578B371B36BB3AE
:106E880000241C600A44DB274FF0DC0C4FF0DD0EB9
:106E98001C688A4204F1010500EB040604D11D6058
:106EA800C02333700020F0BD0E78C02E05D0DB2E35
:106EB8000CD01D600D78055506E01D6007551C684F
:106EC800651C1D6000F804C00131E1E71D6006552E
:106ED8001C68651C1D6000F804E0F5E70E20E2E779
:106EE80010B590B3D0E902239A4230D00478012C2F
:106EF80011D063B21BB1022C21D0112012E0C0299D
:106F080027D0DB2902D101230370F6E74368541C1C
:106F180084609954F1E7DC2905D0DD290AD00223E1
:106F280003700B2010BD511C43688160C021995427
:106F38000023E9E7511C81604368DB21F7E7C0299A
:106F4800DBD1002303708360D7E70E20EAE7042033
:106F5800E8E71846E6E700001FB503788DF800302B
:106F680043680193037A8DF80830C3680393054A90
:106F7800054B684653F8213052F82110984705B060
:106F88005DF804FB0C13002010130020F0B5064632
:106F98000F4B16F804CB43F82C200E4B17460C4623
:106FA8000A6943F82C200FCC89B06D460FC594E8C8
:106FB8000F00002F85E80F00074ACDF810C008BF62
:106FC8003A466946304600F035F909B0F0BD00BFD1
:106FD800101300200C130020616F0600024AD2F83B
:106FE8000034002BFBD0704700E001400A4908B587
:106FF8000223C1F80435BFF36F8FBFF34F8FC1F879
:107008000805FFF7EBFF0023C1F80435BFF36F8FC6
:10701800BFF34F8F08BD00BF00E001400E4B10B515
:107028000124C3F80445BFF36F8FBFF34F8F01EB03
:107038008204401AA14208D1074B0022C3F8042554
:10704800BFF36F8FBFF34F8F10BD431851F8042B58
:107058001A60FFF7C3FFEDE700E0014010B5054CEB
:1070680022681AB904495120FEF7D2FF2368BDE807
:107078001040184714130020B8CC060038B50D4648
:1070880028B90C497720FEF7C3FF002038BD0A4B0A
:107098009842FAD10020FEF721FE084B1C7914B95A
:1070A80001221D601A710020FEF728FE002CECD08A
:1070B8001120EBE7B8CC0600002000401413002094
:1070C80018B906499B20FEF7A3BF054B984201BF9C
:1070D800044B00221A601A71704700BFB8CC060032
:1070E80000200040141300200023435082B043586E
:1070F8000193019B02B07047024940F2C710FEF7A6
:1071080087BF00BF39CD06001F2810B5044601D936
:10711800FFF7F2FF04F5E0744FF0A043022243F8B2
:10712800242010BD1FB501238DF80030054B8DF8C4
:10713800080001916846D3E90012904705B05DF850
:1071480004FB00BF1C1300207FB5384AD2F8246125
:10715800002E49D010464FF49271FFF7C5FF022365
:107168008DF80030D2F88034C2F880340393D2F816
:107178003C358DF808302E4BDA6801920022C3E9BD
:1071880006226846D3E900129047284AD2F84431CB
:1071980073B14FF4A2711046FFF7A6FF244B99690B
:1071A80031B100219961D2F83C05D968FFF7BAFFDF
:1071B8001E4AD2F82031ABB14FF490711046FFF758
:1071C80093FF1B4B596969B1D2F84C158DF808101B
:1071D800002299688DF8002001915A616846D3E928
:1071E8000012904704B070BDD2F81031002BCCD0FB
:1071F8004FF488711046FFF777FF0D4BD2F83C0526
:1072080099698842C1D1DC69D96864B1D2F8005261
:1072180025F02005C2F800521A699C61DA60DE6127
:10722800FFF780FFB1E79C61FAE700BF002000404C
:107238001C1300202DE9F84F054692460C4619B953
:107248007A49BC20FEF7E4FE2E79794F242303FB0C
:10725800067393F82030002B40F0E28075492868C7
:10726800FFF70CFF8046002840F0DD80D4F800903E
:10727800B9F1FF3F18D0B9F11F0F01D9FFF73CFF53
:107288004FF0A043012202FA09F2C3F80825D4F806
:1072980000B0BBF11F0F994601D9FFF72DFF0BF581
:1072A800E07B032349F82B30D4F80490B9F1FF3F71
:1072B8000BD0B9F11F0F01D9FFF71EFF09F5E079CF
:1072C8004FF0A043002243F829202B68A269217DB2
:1072D800C3F82425627D0A43C3F86C25D4E900204D
:1072E8000129C3F80C25C3F8140535D1D4F8089042
:1072F800B9F1FF3F0BD0B9F11F0F01D9FFF7FCFE21
:1073080009F5E0794FF0A043002243F82920D4F88A
:107318000C90B9F1FF3F18D0B9F11F0F01D9FFF751
:10732800EBFE4FF0A043012202FA09F2C3F8082548
:10733800D4F80CB0BBF11F0F994601D9FFF7DCFE5A
:107348000BF5E07B032349F82B30D4E902212B68A5
:10735800C3F80815C3F8102524237343FA18C2F894
:1073680004A02269FA50BAF1000F48D04FF488718E
:107378002868247FFFF7B8FE4FF490712868FFF75C
:10738800B3FE4FF492712868FFF7AEFE4FF4A27176
:107398002868FFF7A9FE2B68274AC3F804234FEA99
:1073A8001339072C4FFA89FA03D924496B20FEF7C1
:1073B8002FFEBAF1000FACBF0AF16043204B4FEA31
:1073C8004414B8BF09F00F09E4B2AABF03F561433A
:1073D80003F8094083F800432B681B0B03F01F01D7
:1073E80043F3C40323F0604323F0030303F1604332
:1073F80003F5614301228A40C3F880211A602B6893
:107408000822C3F80025242303FB06760023C6E9D7
:1074180006337361012386F820304046BDE8F88FB3
:107428004FF00808F9E74FF01108F6E767CD0600B6
:107438001C130020517106001003020025C7060026
:1074480014ED00E02DE9F84303680479254D002286
:10745800C3F80025242202FB04520646526872B182
:10746800214AC3F80823190B4AB20120520901F036
:107478001F0100FA01F120321C4840F82210D3F80D
:107488000C05D3F81495D3F80875D3F810854FF088
:10749800FF329042C3F80C25C3F81425C3F8082519
:1074A800C3F8102501D0FFF72FFEB9F1FF3F02D036
:1074B8004846FFF729FEB8F1FF3F02D04046FFF7E4
:1074C80023FE7B1C02D03846FFF71EFE3068FFF70C
:1074D800F7FD242303FB0454002384F82030636061
:1074E800BDE8F8831C1300201003020000E100E04F
:1074F8002DE9F843344D0779242303FB0753064647
:1075080093F82030012B8846914604D02F4940F249
:107518000D10FEF77DFDB8F1000F04D12B494FF493
:107528008770FEF775FDB9F1000F04D1274940F2C5
:107538000F10FEF76DFD337913B9B9F1FF0F04D9B8
:1075480022494FF48870FEF763FD08F06043B3F1F9
:10755800005F34D13379242404FB03535A6982BB76
:1075680004FB07544FF490713068C4F81490C4F8C1
:107578000880FFF7B9FD4FF4AC713068FFF7B4FD30
:1075880033686169A068C3F84405C3F84815012148
:107598009960616861B9D3F82011D3F8582151B9BD
:1075A800002AF8D00F22242303FB075500236B6120
:1075B8001046BDE8F883002A18BF0F22F3E710220F
:1075C800F6E71122F4E700BF1C13002067CD060080
:1075D800024B53F8213007C8184700BF401300205A
:1075E80010B4044C037944F82320034A5DF8044B93
:1075F80000F074B840130020D97506001FB54B7D04
:10760800DBB2022B0C4606D0032B15D0012B00D180
:10761800436204B010BD00238DF80430CDE9023375
:107628008B6823B90C4940F24910FEF7F1FCA368B6
:10763800A16901A89847ECE701238DF80430D0F838
:107648003C350293D0F84C3503938B68002BEED170
:10765800014940F25510E8E7E8CD060013B54FF0B0
:107668004020D0F82831DBB1194B1A4900221A60A2
:107678001B680093009B4B7DDBB2012B10D10A687D
:10768800CC68C0F84445C0F848254A680C69C0F879
:107698003445C0F83825836202234B75FFF7AEFFE7
:1076A8004FF04020D0F8043183B10B4B0949002238
:1076B8001A601B680193019B4B7D022B06D10323A3
:1076C8004B7502B0BDE81040FFF798BF02B010BD7F
:1076D800284100404C130020044100402DE9F04FA0
:1076E80087B08046914601930D4619B98949832090
:1076F800FEF78EFCB9F1000F03D186498420FEF70E
:1077080087FC854A98F8047000921C2303FB072322
:107718001B7D002B40F0F8802B7C032B00F2F680B9
:10772800D8F800407D492046FFF7A8FC0646002807
:1077380040F0EE80D5F800A0BAF1FF0F00F0D88035
:10774800BAF11F0F95F813B004D9754940F2C71064
:10775800FEF75EFC0AF5E07A4FF0A0424FEA0B23F1
:1077680042F82A30D5F800A0D5F804B0BBF1FF0FD5
:1077780000F0C180BBF11F0F04D9694940F2C7105E
:10778800FEF746FC0BF5E07B4FF0A043002243F8E0
:107798002B20D5F804B0EB68AA7C1F2B08D96049C8
:1077A80040F2C710CDE90232FEF732FCDDE90232C1
:1077B800910003F5E0734FF0A04242F82310AB6844
:1077C8001F2B08D95649029340F2C710FEF720FC38
:1077D800029B4FF0A04203F5E073002142F823100A
:1077E800D5E90232C4F808356B7CC4F810B5C4F882
:1077F8000CA5C4F814252A7CC4F834155B1A18BFE4
:107808000123022AC4F83815C4F84415C4F84815E9
:1078180074D0032A75D0012A01D143F00203C4F8B9
:1078280054352B7DC4F85C356B7DC4F8C035002217
:10783800C4F80421D4F804310593059BC4F8282121
:10784800D4F828310493049BD4F80032009943F00B
:107858000403C4F800321C2303FB07135A75019A6A
:10786800C3F808909A6140F20243C4F80433AD7D2E
:10787800D8F80030072D4FEA133A4FFA8AF903D99E
:1078880028496B20FEF7C4FBB9F1000FB4BF264BA3
:1078980009F160494FEA4515B8BF0AF00F0AEDB281
:1078A800AABF09F5614903F80A5089F80053D8F8C6
:1078B80000301B0B03F01F0243F3C40323F06043A3
:1078C80023F0030303F1604303F56143012101FA47
:1078D80002F2C3F880211A60009A1C2303FB0727D1
:1078E80002233975C4F80035304607B0BDE8F08F7B
:1078F8004FF0FF3A38E74FF0FF3B4CE743F0040303
:107908008DE743F006038AE70826EDE70726EBE74D
:107918001126E9E7E8CD06004C130020657606003D
:1079280039CD060025C7060014ED00E070B5144DEA
:1079380004791C2303FB045306461B7D23B9114914
:1079480040F22510FEF764FB3068020B53B20121A8
:107958005B0902F01F0201FA02F220330A490026ED
:10796800C0F8006541F823204FF0FF33C0F8083312
:10797800FFF7A6FB1C2303FB0454267570BD00BF4C
:107988004C130020E8CD060000E100E02DE9F041AD
:10799800069E804617461C460D4629B922B11E4947
:1079A80040F27310FEF734FB2CB926B11A494FF494
:1079B800BA70FEF72DFB98F804303BBBFF2E25D894
:1079C800FF2F23D825B105F06043B3F1005F1FD125
:1079D80024B104F06043B3F1005F19D10F494B7D26
:1079E800032B03D8DFE803F0051605050320BDE8DF
:1079F800F08101230F60D8F800004E60C1E90354FC
:107A08004B750649FFF7FAFD0020F0E70920EEE77D
:107A18001020ECE70820EAE7E8CD06004C13002028
:107A28002DE9F3478146144605790E4619B95049A0
:107A38004A20FEF7EDFA1CB94D494B20FEF7E8FA4B
:107A48004C4F0C2303FB05731B7A002B40F08E80F0
:107A5800D9F80030484A93420FD002F58052934239
:107A68000BD002F58052934207D002F58032934240
:107A780003D002F58052934202D1B378032B03D985
:107A88003B495F20FEF7C4FA0C236B43FA18FC50FD
:107A98007368536099F80500D9F80030002214463D
:107AA800D1B2884259D896F803801C0BB8F1070F59
:107AB8004FFA84FA03D931496B20FEF7A9FABAF1D3
:107AC800000FAEBF0AF1604304F00F032C4A4FEADF
:107AD80048185FFA88F8AABF03F5614302F80380E3
:107AE80083F80083D9F80020130B03F01F0043F339
:107AF800C40323F0604323F0030303F1604303F559
:107B08006143012101FA00F0C3F880011860D2F83E
:107B18000405737820F0030003F003030343C2F85D
:107B28000435D2F80805B37820F0030003F0030306
:107B38000343C2F80835D2F81005337820F00F0057
:107B480003F00F030343C2F810350C2303FB05753C
:107B58000020297202B0BDE8F087910001F5A071FC
:107B680001325C5059580191019999E70820F1E7D1
:107B780067CE0600681300200080004025C7060075
:107B880014ED00E038B50B4C02790C2101FB0242E0
:107B98000546127A012A03D007498F20FEF738FAE2
:107BA8002B6801221A602B790C2202FB0343022264
:107BB8001A7238BD6813002067CE060037B54FF437
:107BC80080348C4000687BB101F150039B00002594
:107BD800C550C3580193019BC0F8044301F5A8712F
:107BE80040F8212003B030BDC0F80843F6E770B470
:107BF800046840F20116D4F800528E4025EA0605C2
:107C0800C4F80052D4F800522B43C4F800329DF84F
:107C18000C3070BCFFF7D2BF2DE9F341104C114F67
:107C2800114E00254FF48038236804F5C04080B217
:107C38006BB1D7F8043308FA05F21A4207D00023CB
:107C4800236023680193019BD6E9003198470135E9
:107C5800062D04F10404E7D102B0BDE8F08100BFAD
:107C680040A1014000A001406813002028B139B1AB
:107C78000023C1E900301846704748F21050704799
:107C880048F213507047000070B506460C461D4672
:107C9800FFF7ECFF50B9B3794AB1AB420AD11146AC
:107CA8002046FDF7DCF808B9044B236070BD48F2A4
:107CB8001050FBE748F21150F8E700BF7052464DEC
:107CC80010B5044638B149B141600B68984708B906
:107CD800044B236010BD48F20150FBE748F21050F6
:107CE800F8E700BF6E524648F0B4134648B107683B
:107CF800094EB7420AD161B12AB14368F0BC5B684A
:107D0800184748F201531846F0BC704748F202532E
:107D1800F9E748F21053F6E76E524648F0B460B1FE
:107D280007680C4EB7420CD171B143681568DC681E
:107D3800A5420CD39B68F0BC184748F20150F0BC30
:107D4800704748F20250FAE748F21350F7E748F252
:107D58001450F4E76E5246482DE9F04104461746A0
:107D68009846DDE90656FFF7ABFF60B9424639464B
:107D78002046FFF7B9FF30B9324629462046BDE80C
:107D8800F041FFF7CBBFBDE8F0810000F8B50A4F1E
:107D98000A4C0B4DE41B0121E40829700026A64279
:107DA80003D102232B700020F8BD57F836309847CE
:107DB8000028F9D10136F2E7ACC10600ACC10600D3
:107DC8007413002008B5072819D8DFE800F0041953
:107DD80018181804180401211D2000F0C5F8002106
:107DE8001D2000F0F9F80B4B0B491888000440F0EF
:107DF8000300FCF741FEFCF7CBFC0028FBD108BDD3
:107E0800044B06491888000440F00300BDE8084008
:107E1800FCF732BE2C00002086CF0600A2CF060059
:107E280007B5164B1C88009224040B4602461449D9
:107E380044F00100FCF737FEFCF7E4FEFCF7A8FC71
:107E48000028FBD10F4D642445F001054FF47A401A
:107E5800A847013CFAD10C4B1B68DB0700D500BED4
:107E6800BFF34F8F09490A4BCA6802F4E062134313
:107E7800CB60BFF34F8F00BFFDE700BF2C00002091
:107E880028CF060080CF0600F0ED00E000ED00E00E
:107E98000400FA0510B500F0F9FA00224FF48051F9
:107EA800104603F0CDFB08B1FDF796FC21480022EF
:107EB800C0F5FC2103F0C4FB08B1FDF78DFC1E4C96
:107EC8001E484FF40041FCF7FBFBFCF701FB208840
:107ED8001B49000440F00300FCF7CEFD2088154B39
:107EE800184A1949000440F00300FCF7D2FD208825
:107EF8001449000440F00300FCF7BEFD134803F0EA
:107F0800A9FA08B1FDF768FC20881149000440F07F
:107F18000300FCF7B1FD4FF4FA7001F0BDFE03F069
:107F280059FB20880B49000440F00300FCF7A4FD2E
:107F3800002010BD004006002C000020995C0600BF
:107F4800C2CF06005FCF0600CECF0600CD7D06006B
:107F5800FFCF06002DD00600024940F2C710FEF7F9
:107F680057B800BF39CD0600012910B504460BD11A
:107F78001F2801D9FFF7F0FF04F5E0744FF0A04384
:107F8800032243F8242010BD51B91F2801D9FFF757
:107F9800E3FF04F5E0744FF0A0434FF40032F0E73C
:107FA800032909D11F2801D9FFF7D6FF04F5E0748A
:107FB8004FF0A043064AE4E70229E4D11F2801D97B
:107FC800FFF7CAFF04F5E0744FF0A043014AD8E771
:107FD800040002000C00020038B50546012449B926
:107FE8001F2801D9FFF7B8FF4FF0A043AC40C3F8F2
:107FF8000C4538BD1F2801D9FFF7AEFF4FF0A0434D
:10800800AC40C3F80845F4E730B50022074D1346E5
:108018008A4201DB184630BD845C84EA13240132AD
:1080280035F8144084EA03239BB2F1E738D0060000
:108038002DE9F04707461E46FB1F022B0846DDE9DF
:1080480008C50AD92D4B2E491888000440F00300B2
:10805800FCF712FD0020BDE8F0870224DFF8B49099
:10806800347077704B1EC1F1010E4FF001084FF0CC
:10807800100A0EEB03018A4207DCE71C674522DB86
:108088001E4B204918880004E0E75F78102F0ED8AF
:1080980008FA07F717EA090F09D0644504DB174BFC
:1080A800194918880004D1E706F804A0013464458A
:1080B80004DB124B154918880004C7E713F8011FA1
:1080C80031550134D5E7032333551146FFF79CFF9B
:1080D80033195870000A98700423F3551DB11C44D5
:1080E8002C600120B7E7054B09491888000440F0C7
:1080F8000300FCF7C1FC2846ADE700BF2C000020B8
:1081080038D20600BCD2060060D206008ED2060025
:10811800EAD206001C0001002DE9F04F8BB0CDE932
:1081280008230691994D9A4C9A4E58B19A4B0021C2
:1081380019809A4B2980DDE9150219802160316088
:1081480003F0ABFF964B31681B780593924BB5F85B
:1081580000C0B3F800B0914B27681B880393914B7C
:1081680000201A7804900346044681468646054650
:1081780082460790089EB2453CDB0DB1844D2F60C6
:10818800049D15B1844DA5F800B0BEF1000F02D0D2
:108198007E4DA5F800C0B9F1000F02D07F4D039EB7
:1081A8002E800CB17B4C21600BB17E4B1A7010B144
:1081B8007B4B059A1A7000237A4A1278002A00F03D
:1081C800F780002B00F0F480744B72491A88724BC8
:1081D80009681B889A4200F0CE8073480088019194
:1081E80000040899009140F003007049FCF767FC0F
:1081F800032050E0042F7DD8DFE807F00317957FB0
:108208008700069E16F80A80B8F1020F72D1012382
:10821800002239461C46994603929E46944604938A
:1082280093461D461F46079264E0069E16F80A808C
:10823800B8F1100F00F08980B8F1030F00F08880C2
:10824800B8F1040F00F0BB80B8F1020F00F0838092
:10825800169E8E4222DC15B14D4D01272F60049DDC
:1082680015B14D4DA5F800B0BEF1000F02D0474D35
:10827800A5F800C0B9F1000F02D0484D039E2E802A
:108288000CB1444C21600BB1464B1A7010B1444BF1
:10829800059A1A7001200BB0BDE8F08F29BB079E24
:1082A8001EBBA8F10700022860D9049911B13A4908
:1082B800A1F800B0BEF1000F02D03449A1F800C007
:1082C800B9F1000F02D035490398088014B131493B
:1082D800002008600BB1334B1A70314B83F80080D3
:1082E8002B4B00221A600420D5E7159C04F8018066
:1082F800013101240AF1010A3CE7069D4FF0010E05
:1083080015F80AC004277546F4E7069B13F80A30E7
:108318005FFA8CF646EA0323039301231A4699462B
:108328001D461F46E6E7169E8E4204DC002D96D0B9
:10833800174D022792E7069C159D14F80A406C54C5
:108348000124013125462746D4E701250227D1E734
:1083580001254746CEE7012300221C4611469946CF
:1083680003929E469446049393465CE70120CDF819
:1083780014800790BEE7099B1960094B1A78149B73
:108388001A70159A00235354022084E776130020AC
:108398007C13002078130020841300208013002011
:1083A80082130020751300202C00002013D3060030
:1083B800174B1B68002B14BF002005206BE715B175
:1083C800134D01272F60049D15B1124DA5F800B07B
:1083D800BEF1000F02D0104DA5F800C0B9F1000F92
:1083E80002D00E4D039E2E800D4D04B129600BB1B5
:1083F8000C4B1A7010B10C4B059A1A702968002999
:1084080004DD1598FFF700FE024B18800123D3E620
:108418007C13002084130020761300208013002092
:108428007813002075130020821300202DE9F041F5
:1084380003F1FF3C064600248C4202DB0020BDE825
:10844800F08116F804E015783019AE45074607D1D3
:10845800012BF4D01D19A942F0DB01259D4201DB57
:108468000134E9E717F8018F12F805E0F045F7D174
:10847800AC45E4D00135F1E7B0F5A07F01BF024A71
:108488001368013313607047881300201FB54FF03D
:10849800E0620023CDE9022302A90D4A0D48FFF747
:1084A800BFFA08B1FDF798F90B4B0A48D3F8102525
:1084B8004FF47A510123D2B221FA02F2009300213B
:1084C800FFF795FB0348FFF75DFB05B05DF804FB7C
:1084D8008184060068D3060000A00140014B18689B
:1084E800704700BF88130020C3F10803DB0070B594
:1084F8000133002403A500BF5B1920C940CAAD1988
:1085080020C0184720C940CA754120C020C940CAA8
:10851800754120C020C940CA754120C020C940CA41
:10852800754120C020C940CA754120C020C940CA31
:10853800754120C020C940CA754120C06441204609
:1085480070BD00BF00000000C3F10803DB0070B578
:108558000133002403A500BF5B1920C940CAAD1B25
:1085680020C0184720C940CAB54120C020C940CA08
:10857800B54120C020C940CAB54120C020C940CA61
:10858800B54120C020C940CAB54120C020C940CA51
:10859800B54120C020C940CAB54120C06441B4FAE1
:1085A80084F0400970BD00BF2DE9F04F08B4F8CA47
:1085B80004B451F8042BA3FB028940F8048B4FF054
:1085C800000AE4FB629A4FF0000BE5FB62AB4FF048
:1085D800000CE6FB62BC4FF0000EE7FB62CE51F8E0
:1085E800042B4FF00008E3FB628940F8048BE4FB9E
:1085F800629AE5FB62ABE6FB62BCE7FB62CE51F830
:10860800042B4FF00008E3FB628940F8048BE4FB7D
:10861800629AE5FB62ABE6FB62BCE7FB62CE51F80F
:10862800042B4FF00008E3FB628940F8048BE4FB5D
:10863800629AE5FB62ABE6FB62BCE7FB62CE51F8EF
:10864800042B4FF00008E3FB628940F8048BE4FB3D
:10865800629AE5FB62ABE6FB62BCE7FB62CE40F8E0
:10866800049B40F804AB40F804BB40F804CB40F846
:1086780004EB0CBC052B00F01E810C68A0F1140063
:10868800A1F11401A2F1140252F804EB4FF0000515
:1086980050F8046BE4FB6E5652F804EB50F8047B78
:1086A800E4FB6E6752F804EB50F8048BE4FB6E7839
:1086B80052F804EB50F8049BE4FB6E8952F804EB83
:1086C80050F804ABE4FB6E9AA0F1140052F8044B86
:1086D80051F804EB4FF0000CE4FB6EC540F804CBF6
:1086E80051F804EBE4FB6E5640F8045B51F804EBD8
:1086F800E4FB6E6740F8046B51F804EBE4FB6E781A
:1087080040F8047B51F804EBE4FB6E8940F8048BD5
:1087180051F804EBE4FB6E9AA0E80006062B00F083
:10872800CA800C68A0F11800A1F11801A2F1180282
:1087380052F804EB4FF0000550F8046BE4FB6E565A
:1087480052F804EB50F8047BE4FB6E6752F804EB34
:1087580050F8048BE4FB6E7852F804EB50F8049B55
:10876800E4FB6E8952F804EB50F804ABE4FB6E9A14
:1087780052F804EB50F804BBE4FB6EABA0F1180010
:1087880052F8044B51F804EB4FF0000CE4FB6EC5B3
:1087980040F804CB51F804EBE4FB6E5640F8045B58
:1087A80051F804EBE4FB6E6740F8046B51F804EBF6
:1087B800E4FB6E7840F8047B51F804EBE4FB6E8927
:1087C80040F8048B51F804EBE4FB6E9A40F8049BE4
:1087D80051F804EBE4FB6EABA0E8000C072B6AD061
:1087E80008B40C68A0F11C00A1F11C01A2F11C0244
:1087F80052F804EB4FF0000550F8046BE4FB6E569A
:1088080052F804EB50F8047BE4FB6E6752F804EB73
:1088180050F8048BE4FB6E7852F804EB50F8049B94
:10882800E4FB6E8952F804EB50F804ABE4FB6E9A53
:1088380052F804EB50F804BBE4FB6EAB52F804EBBF
:1088480050F804CBE4FB6EBCA0F11C0052F8044BBA
:1088580051F804EB4FF00003E4FB6E3540F8043B9D
:1088680051F804EBE4FB6E5640F8045B51F804EB56
:10887800E4FB6E6740F8046B51F804EBE4FB6E7898
:1088880040F8047B51F804EBE4FB6E8940F8048B54
:1088980051F804EBE4FB6E9A40F8049B51F804EBA2
:1088A800E4FB6EAB40F804AB51F804EBE4FB6EBCA0
:1088B800A0E8001808BCBDE8F08F10B500231A46E0
:1088C8005CB2A14203DCB2FA82F0400910BD50F854
:1088D800234001332243F3E710B500235CB2A242E0
:1088E80000DC10BD51F8234040F823400133F5E780
:1088F80010B5013A52B2002A01DA002010BD13B2B5
:1089080050F8234051F823309C4203D8F1D24FF05D
:10891800FF3010BD012010BD00EB8101002388420B
:1089280000D3704751F8042C43EA520341F8043D40
:10893800D307F4E770B59DF910401E462346054657
:10894800FFF7D2FD30B9224629463046FFF7D0FF5F
:10895800012807D02346324629462846BDE87040FC
:10896800FFF7F2BD70BD70B59DF910401E46234655
:108978000546FFF7E9FD38B1234632462946284621
:10898800BDE87040FFF7B0BD70BD30B51C4691B072
:10899800054693F900306846FFF706FED4F8AC3078
:1089A80069462846984711B030BD13460A46FFF776
:1089B800ECBF2DE9F04793F9006092B00446894670
:1089C8001046314615469846FFF777FF002840F0D5
:1089D80093804246494602A8FFF7E7FF434602AAAA
:1089E80021460AA8FFF7D1FF02A908464246FFF729
:1089F800DCFF43462A4649464846FFF7C6FF08F1CA
:108A08000407424629462846FFF7CFFF3B462A4639
:108A1800214620460096FFF78DFF3B462A46294609
:108A280028460096FFF786FF3B462A4621462846F9
:108A38000096FFF798FF43462A4621462046FFF74F
:108A4800A4FF3B462246214628460096FFF772FFC0
:108A58003B4600962A4621462046FFF76BFF2368CF
:108A6800DB074CD533463A4621462046FFF73CFD06
:108A7800314682462046FFF74FFF06F18043013B0F
:108A880054F8230040EACA7044F8230042462146BD
:108A98002846FFF78AFF3B460AAA29462846009639
:108AA800FFF761FF3B460AAA294628460096FFF7CA
:108AB8005AFF0AA908463B462A460096FFF753FF85
:108AC80043460AAA21462046FFF75FFF02AA3B4613
:108AD800104621460096FFF746FF324629462046B3
:108AE800FFF7FAFE324649462846FFF7F5FE3246BA
:108AF80002A94846FFF7F0FE12B0BDE8F0873146FC
:108B08002046FFF709FFC1E72DE9F04115468AB075
:108B1800044688462022002102A803F0BEFA2E1D32
:108B280095F9007003232A46414620460293FFF731
:108B38003CFF334602AA214620460097FFF713FF61
:108B48002B46424621462046FFF71FFF0097334633
:108B580005F1840221462046FFF7ECFE0AB0BDE885
:108B6800F0810000F0B5082289B00C460646FFF7F0
:108B7800B3FECB6A03930B6B04934B6B05938B6B20
:108B88000693CB6B0793002708236A466946684615
:108B9800029701970097FFF7A7FC082305466A4646
:108BA80031463046FFF7A0FC236B0393636B0493B5
:108BB800A36B0593E36B0693054408236A4669464D
:108BC80068460797FFF790FC082305446A46314634
:108BD8003046FFF789FC236A0093636A0193A36A0E
:108BE8000293A36B0693E36B0793054408236A4635
:108BF80031463046059704970397FFF775FC636A7B
:108C08000093A36A0193E36AA26B0293636B0393D5
:108C180004920693E26B236A0592054407936A4619
:108C2800082331463046FFF75FFCE36A0093236B65
:108C38000193636B0293236A0693A36A079305441F
:108C480008236A4631463046059704970397FFF78D
:108C58007BFC236B0093636B0193A36B0293E36B21
:108C68000393636A0693E36A07932D1A08236A46F7
:108C78003146304605970497FFF766FC636B00930F
:108C8800A36B0193E36B0293236A0393636A0493D0
:108C9800A36A0593236B07932D1A08236A46314666
:108CA80030460697FFF750FCA36B0093E36B0193E4
:108CB800636A0393A36A0493E36A0593636B079358
:108CC8002D1A08236A463146304602970697FFF761
:108CD8003BFC2D1A0D4C0FD435B9082231462046DD
:108CE800FFF706FE01280FD00823224631463046FA
:108CF800FFF72AFC2D1AEFE70823224631463046B3
:108D0800FFF7F2FB2D18F7D409B0F0BD74D30600B5
:108D18000048704770D3060013681F2B10B514461F
:108D280007D901220830FEF727F808B92023236065
:108D380010BD48F21450FBE70830FDF7F9BF0830C2
:108D4800FDF7C6BFBFF34F8F0549064BCA6802F44B
:108D5800E0621343CB60BFF34F8F00BFFDE700BF56
:108D680000ED00E00400FA050C4B1B78062B10D12F
:108D78000B4B1B681A070CD10A4B186800F0F0035C
:108D8800302B08D000F0E000A0F1400358425841D1
:108D98007047002070470120704700BFE00F00F0C7
:108DA800E40F00F0E80F00F0094B1B78062B0CD1FC
:108DB800084B1B681A0708D1074B186800F0F00029
:108DC800A0F130035842584170470020704700BF57
:108DD800E00F00F0E40F00F0E80F00F008B5FFF72F
:108DE800C3FF28B1894B8A4A1B68C3F30423136065
:108DF800FFF7DAFF10B1874B874A1A60FFF7B4FF15
:108E080028B1864B864A1B68C3F342331360FFF7C9
:108E1800CBFF20B1834AD36823F08073D360FFF778
:108E2800A3FF40B14FF080430022C3F80C21C3F8E0
:108E38001021C3F83825FFF7B7FF10B17A4B03228A
:108E48001A60FFF7B1FF40B1784B05221A60012282
:108E58009A6700229A603F225A60754B1B78062B4E
:108E680050D1744B1B6818074CD1734B1B6803F027
:108E7800F003502B46D14FF08052704BD2F80414B7
:108E8800C3F82015D2F80814C3F82415D2F80C1426
:108E9800C3F82815D2F81014C3F82C15D2F81414F6
:108EA800C3F83015D2F81814C3F83415D2F81C14C6
:108EB800C3F84015D2F82014C3F84415D2F8241486
:108EC800C3F84815D2F82814C3F84C15D2F82C1456
:108ED800C3F85015D2F83014C3F85415D2F8341426
:108EE800C3F86015D2F83814C3F86415D2F83C14E6
:108EF800C3F86815D2F84014C3F86C15D2F84424A6
:108F0800C3F87025FFF730FF28B14D4B4D4A1B6859
:108F180003F04F031360FFF727FF48B14FF080437A
:108F2800D3F80024D10744BF6FF00102C3F800242E
:108F3800454B1B68062B08D1444B1B68062B01BF09
:108F4800434A136843F480631360424AD2F8883076
:108F580043F47003C2F88830BFF34F8FBFF36F8FAD
:108F68004FF01023D3F80C22D2071ED53A4B01221A
:108F7800C3F80425D3F80024002AFBD04FF01022B0
:108F8800D2F80C3223F00103C2F80C32324B1A46E5
:108F9800D3F800140029FBD00021C3F80415D2F837
:108FA8000034002BFBD0FFF7CDFED3F80022002AB7
:108FB80003DBD3F80432002B23DA274B0122C3F852
:108FC8000425D3F80024002AFBD04FF010221521E5
:108FD800C2F80012D3F80024002AFBD04FF0102367
:108FE8001522C3F804221C4B1A46D3F80014002992
:108FF800FBD00021C3F80415D2F80034002BFBD0B5
:10900800D1E7164B164A1A6008BD00BF24030010AA
:109018004035014074C007400DF0ADBA440200105D
:109028003C050040F0ED00E0A0050040105600406F
:10903800E00F00F0E40F00F0E80F00F000C000407F
:1090480058020010E40E00403001001034010010F6
:109058003C17004000ED00E000E00140B4000020B3
:109068000090D003062810B5044602D1002001F074
:10907800D1F9044B1B681BB12046BDE810401847C6
:1090880010BD00BF8C13002038B5104B104D186070
:1090980028881049000440F00300FBF7EDFC00208D
:1090A800FFF7E0FF0C4801F07FF9044620B90A48B1
:1090B800BDE8384000F0B4BC2888084900042246BE
:1090C80040F00100FBF7DCFC204638BD8C13002083
:1090D8002C00002050D506006D90060063D50600D0
:1090E80030B519490B6885B004460BB1013B0B60DC
:1090F800164A636810882578000440F004008BB98C
:109108000B68134A13490093012D08BF0A46A36848
:109118001149FBF7C8FC63699BB1E06805B0BDE87D
:10912800304018470A68029222690192A2680092A8
:109138000849074A012D08BF0A460849FBF7CDFC34
:10914800E9E705B030BD00BF9013002050000020B3
:1091580093D506008DD5060099D50600BFD5060023
:1091680008B5074B07491888000440F00400FBF7CE
:1091780083FC002204490548BDE80840FDF7BEBA53
:109188005000002065D6060080CA060008000020AE
:109198002DE9F743154E164D0446308899462B683D
:1091A8000004CDE900230F460B469046114922469C
:1091B80040F00400FBF783FC2146CDF800904346BD
:1091C8003A460D48FDF7B2FA044630B92B68013328
:1091D8002B60204603B0BDE8F083308807490004BF
:1091E800224640F00200FBF74BFCF2E7500000205B
:1091F800901300208DD6060008000020D0D6060067
:109208002DE9F341134E144D044630882B68009322
:1092180000040B460F4690461049224640F00400D1
:10922800FBF741FC214643463A460D48FDF7CEFA86
:10923800044630B92B6801332B60204602B0BDE8E4
:10924800F081308807490004224640F00200FBF70D
:1092580017FCF2E75000002090130020FBD5060011
:109268000800002038D60600014B18700B20704704
:1092780094130020024B002218781A70704700BF20
:109288009413002018DF704730B585B005461022CA
:109298000C466846002102F000FFA40868460195C4
:1092A8000294FFF7EFFF05B030BD0000F0B5144C95
:1092B80014492088000485B040F00400FBF7DCFB6B
:1092C800002606234FF480576846CDE90037CDE9DC
:1092D8000266FFF7D7FF0728054620880A4908BF16
:1092E8004FF000534FEA004008BF1F6040F00400F1
:1092F80008BF3546FBF7C0FB284605B0F0BD00BFE8
:109308002C00002011D706000BD70600074B084990
:10931800188810B5000440F00400FBF7ADFB054BBE
:1093280006201B68BDE81040184700BF5400002005
:109338000EDD0600A01300200A2803D90B38C0B29E
:10934800FFF792BF70470000F0B5054687B00020D0
:10935800FDF778FA044680B1234A18212846FCF71D
:109368006DFA024638B1214B21491B881B0443F092
:109378000100FBF785FB07B0F0BD182201466846DF
:1093880002F08BFE04238DF800301A4F1A4B174E4B
:109398001A6D3B689A4222D130881849184C00044B
:1093A80040F00400FBF768FB164B3968186801F0B9
:1093B800DDFB8DF80100FFF7BFFF8DF80100D5E94F
:1093C80001136846984714B1204600F027FF3088FB
:1093D8009DF801200C49000440F00400C9E701236E
:1093E8008DF80130EBE700BF5193060054000020D0
:1093F8009BDC0600981300200C2D0020C4DC06001E
:10940800159306009C130020E6DC0600F0B583687F
:1094180089B0054623B9A74940F2C620FCF7F8FDF4
:10942800162200210DF10A0002F037FE2A788DF885
:10943800082001238DF809309F4C0C2A00F29782EE
:10944800DFE812F00D00CD00AE00CD00CD00950292
:10945800CD00B600CD00A50018004700C100208847
:109468009649000440F00400FBF706FB01238DF841
:109478000C3018E020889249000440F00400FBF703
:10948800FBFA4FF08053D3F800210392D3F804215C
:109498000492D3F80C2192020692D3F8102192027A
:1094A80005921B69079320889DF8092085490004C7
:1094B80040F00400FBF7E4FAD5E9011302A8984745
:1094C8009DF80930012B00F038827F4B05201B687E
:1094D80032E220887D497E4E000440F00400FBF70C
:1094E800CBFA20882A7C7B49000440F00400FBF773
:1094F800C7FA43F20403326A18687749884214BFEE
:1095080001230223012A4FF001028DF809202A7C49
:1095180008BF013352B902238DF80C30F368049365
:109528006E4B0593C3F5FC230693BCE7012A14D1BF
:10953800884212D100234FF440528DF80C30127833
:10954800142A84BF43F214031B6804934FF4805316
:10955800059343F208031B68E6E79A4209D2012300
:109568008DF80C30B368049300F0EEFFB3690590F2
:10957800DAE720885A49000440F00400FBF77CFA37
:10958800FF238DF80C300023CDE90433CCE7208885
:109598005449000440F00400FBF76EFA2B7C66E7A0
:1095A80020885149000440F00400FBF765FA7AE787
:1095B80020884E49000440F00400FBF75DFA2B8A2E
:1095C800ADF80C306FE720884949000440F00400EA
:1095D800FBF752FA3C4B07201B68984763E7062ABB
:1095E800444E01D0012A01D12B6933703378012B05
:1095F8000CD0022B00F0B78020883F49000440F0CF
:109608000100FBF739FA0023337016E1013A072A03
:1096180000F2A380DFE802F004A11778A196A12444
:1096280020883649000440F00400FBF725FA264B51
:1096380003201B689847686901F094F9FFF77CFEDE
:109648008DF809002FE720882D49000440F0040018
:10965800FBF712FA1E4BDA6B1B6C0392049322E79A
:109668002B6923B913494FF48770FCF7D1FCAB8AF7
:1096780023B9104940F20F10FCF7CAFC2088214991
:10968800000440F00400FBF7F7F9A98A286901F003
:1096980085F9FFF751FE0E4B8DF80900DA6B1B6C4C
:1096A8000493EB680392002B3FF4FDAE28699847BA
:1096B800F9E600BF43D7060054000020D2D70600C1
:1096C800F5D70600E6DC0600A013002018D806002F
:1096D8000C2D00203BD80600DBE5B1510040060008
:1096E80058D806006FD8060086D80600AAD8060003
:1096F800C4D80600B80000205CDC0600DCD80600F0
:1097080006D906002AD9060020889D49000440F0A1
:109718000400FBF7B1F99B499B4801F071F9FFF789
:109728000BFE01288DF809007FF4BDAE002000F083
:1097380075FD18B920889549000434E70A238DF887
:109748000930B0E620889249000440F00400FBF795
:1097580093F94FF4807305937CE78E4940F27310B8
:10976800FCF756FC9FE6013A072A00F2FC80DFE886
:1097780012F00800FA00AE00C200FA00E600FA0093
:10978800720020888449000440F00400FBF774F953
:1097980001F030F940B920888049000440F0010008
:1097A800FBF76AF90823CAE76A6942B920887C4945
:1097B800000440F00100FBF75FF90323BFE7C2F3A1
:1097C8000B0353B1774B6F495B6D096813448B42A8
:1097D80003D0208874490004EBE7B2F5805F08D90C
:1097E80020887249000440F00100FBF745F9042382
:1097F800A5E76C4E6349736D0968D018884208D98B
:109808002088009100046A4940F00100FBF74BF9F9
:10981800C8E77264F26CB2645B4A336510683363FC
:10982800002201211844FFF7EBFC40B12088614970
:10983800000440F00100FBF71FF905237FE7B36C34
:1098480000932088336D726C5B49000440F004007B
:10985800FBF729F927E620885849000440F004005E
:10986800FBF70AF901F0C6F800289BD04D4ED6E95F
:1098780014329B1AAA8A1344726C934203D9208823
:109888004F49000495E7404B376B1B681F44EB6852
:1098980023B940494FF4F370FCF7BAFBEB68AA8A86
:1098A80029693846FFF774FC08B1EB68FEE6A98A17
:1098B800336B444A28690B443363336D0B44336577
:1098C800FCF72CFAB0640490336D0393EBE5208821
:1098D8003D49344E000440F00400FBF7CDF82088E1
:1098E800B36C326D3949000440F00400FBF7D1F83D
:1098F800B36C0493E8E720883549000440F004007D
:10990800FBF7BAF82748D0E91463426CF31A93427C
:1099180007D020882F49000440F00100FBF7B9F870
:1099280040E7836CC3640021416446652846FFF71D
:109938000BFD294B1B680420984709B0F0BD20880F
:109948002649000440F00400FBF796F8154B2088E0
:109958009A6C1B6D04924FF480510591009103930A
:1099680000041F4972E70B4940F28E20F8E6208870
:109978001C49000440F00300FBF782F80223DEE6EE
:1099880053D90600981300209C1300207ED90600A6
:10999800A3D9060043D70600CDD90600F4D906009E
:1099A80029DA06000C2D002042DA060063DA0600E8
:1099B80087DA0600F8DA06000FDB06004ADB060045
:1099C80070DB0600542D002087DB0600A8DB0600AC
:1099D800BEDB0600E6DB0600A01300200ADC06005A
:1099E80031DC06007CDC0600836810B57BB1094ACF
:1099F8001821FBF723FF044638B1074B074918889D
:109A0800000440F00200FBF737F8204610BD072499
:109A1800FBE700BF159406005400002027D7060076
:109A280038B50546C0B10020FFF79AFB044648B98F
:109A380000F066FF00F0DEFF30B9084B00201D6023
:109A4800FFF712FC204638BD0549064800F0D8FF4C
:109A58000128F2D00324F5E70724F3E7A013002038
:109A6800981300209C1300201FB504AB03E90700DE
:109A78009DF804400CB3012C2ED100211920FEF7CB
:109A8800ABFAFEF72BFD194B029A1860184B1C70A5
:109A9800184B1A60184B039A1A60184B00221A7058
:109AA800174B1C70174B1B780BB9174B1C70174AB8
:109AB80013680133136004B010BD154B1C88FEF702
:109AC8000DFD2404134944F003040246204604B063
