:020000022000DC
:1060000000000120396202009162020093620200E6
:10601000956202009762020099620200000000008F
:1060200000000000000000000000000065A1020068
:106030009D6202000000000089A10200A16202002E
:106040009DCD0200A762020015DA0200591D03006F
:10605000B5240300AF62020035D7020045FA020002
:10606000B5620200B7620200B9620200BB620200C0
:10607000BD620200BF620200C1620200C362020090
:10608000C562020089A40200C9620200CB6202005C
:10609000CD620200CF62020015CD0300D362020080
:1060A000D5620200D7620200A50D0300BD0D0300FA
:1060B000DD620200DF620200A3620200A36202004E
:1060C000E1620200E3620200E5620200E7620200B0
:0C60D000E9620200EB620200ED620200D7
:1060DC00354936480A1A02D0072291438D46344975
:1060EC0034480A1A06D00722914381F30988022208
:1060FC0082F3148830483149314A00F044F8314871
:10610C003149324A00F03FF831483249324A00F006
:10611C003AF832483249334A00F035F832483349BC
:10612C00334A00F030F833483349344A00F02BF846
:10613C0033483449344A00F026F8344834490022B4
:10614C0000F02CF833483449002200F027F833488B
:10615C003349091A082902DB002202604160314AE6
:10616C0090471F481F49884205D00268043003B489
:10617C00904703BCF7E700208646EC460020002140
:10618C00294A9047FEE7884207D0521A05D0037877
:10619C0001300B700131013AF9D17047884202D0BD
:1061AC0002700130FAE770470000012000F800206F
:1061BC0000000120000001202827040014580020B2
:1061CC00D8580020F0620200F062020010F00300C8
:1061DC00282704001458002014580020ECF1030068
:1061EC00ECF10300ECF10300ECF10300ECF1030023
:1061FC00ECF10300ECF10300ECF1030028270400A0
:10620C00EC270400D8580020D8580020D85800207B
:10621C0068EE002068EE00206CEE00206CEE002092
:10622C006CF200205D620200C14203000F484FF087
:10623C000701884385460E4880470E48016841F4A3
:10624C0070010160BFF34F8FBFF36F8FFFF740BF3B
:10625C0009480A490A4A884207D0521A05D00378DD
:10626C0001300B700131013AF9D170470000012067
:10627C005199020088ED00E090F10300B85700201E
:10628C0014580020FEE7FEE7FEE7FEE7FEE7FEE718
:10629C00FEE7FEE7FEE7FEE7FEE7FEE7FEE7FEE7CA
:1062AC00FEE7FEE7FEE7FEE7FEE7FEE7FEE7FEE7BA
:1062BC00FEE7FEE7FEE7FEE7FEE7FEE7FEE7FEE7AA
:1062CC00FEE7FEE7FEE7FEE7FEE7FEE7FEE7FEE79A
:1062DC00FEE7FEE7FEE7FEE7FEE7FEE7FEE7FEE78A
:0462EC00FEE700BF0A
:1062F0000048704760EE002000B585B00190019B1A
:10630000002B0AD0074B43F001030393019B9B0131
:106310000293039B0298984700E000BF05B05DF828
:1063200004FB00BF00F2030000B583B00190019BA5
:10633000002B0AD04FF47A70FFF7DEFF019B013B80
:106340000193019B002BF5D100E000BF03B05DF885
:1063500004FB08B513F0D8FC00BF08BD00B589B038
:10636000039002910192019B002B33D000230793ED
:1063700003230693029A079B1344019A19460020AF
:1063800013F074FC0590079A059B13440793019A38
:10639000059BD31A0193059B002B13D10F4B1B7840
:1063A00083F00103DBB2002B13D10120FFF7BCFF08
:1063B000069B013B0693069B002B03D1074B002253
:1063C0001A7007E0054B01221A70019B002BD1D1F6
:1063D00000E000BF00BF09B05DF804FBD858002002
:1063E00000B585B003900291054B00934023054A08
:1063F0000299039800F012F800BF05B05DF804FBA5
:106400005D630200DC58002082B0019000BF02B042
:10641000704782B0019000BF02B0704700B5A1B0D4
:106420000590049103920293049802F0DAFA039B18
:106430001593029B16930023179300238DF8603069
:1064400000231993229B1A9300231F930FA91F9BCC
:106450000822049802F074FB08231F93119B1293E7
:10646000BDF84030ADF84C30BDF84230ADF84E309C
:1064700000238DF851309DF83C3003F00303DBB26C
:10648000012B26D10F9BC3F395231D939DF83C3020
:10649000C3F3C203DBB28DF85030BDF83C30C3F318
:1064A0008313DBB21C931C9B9A0009A91F9B0498C1
:1064B00002F046FB1C9B9B001F9A13441F9312AAD9
:1064C00009A915AB009313461C9A1D9800F0CEFE47
:1064D0002FE09DF83C3003F00303DBB2022B28D100
:1064E000BDF83E30C3F389139BB21E939DF83C3038
:1064F000C3F3C203DBB28DF850301E9B082B28BFBC
:1065000008231B9307A91F9B1B9A049802F018FBF2
:106510001F9A1B9B13441F931E9A1B9BD31A1E93F7
:1065200015AB12AA07A81B9900F042FF1E9B002B77
:10653000E3D1049802F064FA00BF21B05DF804FBD7
:1065400082B00190019B01225A7200BF02B07047D5
:1065500000B583B04FF0FF330193FFF7FAFE04213B
:10656000054800F0A3FD01900348FFF7E9FF00BFD5
:1065700003B05DF804FB00BF1458002000B583B0E1
:1065800001900091019B1B681B6800990198984736
:1065900000BF03B05DF804FB00B583B00190019B20
:1065A0001B685B680198984700BF03B05DF804FB67
:1065B00000B583B00190019B1B689B6801989847C8
:1065C00000BF03B05DF804FB82B001900B468DF86C
:1065D0000330019B9DF803201A7200BF02B0704780
:1065E00082B00190019B1B7A184602B0704782B0BE
:1065F0000190019B01225A7200BF02B0704782B025
:106600000190019B5B7A184602B0704700B587B0D5
:10661000019000911D4BFF229A601C4B00221A60D2
:106620001A4B00225A60194B0022C3F81824174B4A
:106630000022C3F81424154B002283F820241448A8
:1066400002F034F90490049B002B01D0049B18E065
:10665000104A114BD31ADB080393002305930BE078
:10666000059B9B000D4A13440293059B9AB2029B23
:106670001A80059B01330593059A039B9A42EFD339
:106680000023184607B05DF804FB00BFEC5900205A
:1066900020F1030020F1030068F00300B857002048
:1066A000024A034BD31ADB081846704720F1030057
:1066B00068F0030000B587B001900B468DF80330F9
:1066C0009DF80330002B1FD0FFF7EAFF0490002352
:1066D000059313E0059B9B000E4A13440393039B11
:1066E0005B881A46019B1B689A4204D1019B059A5C
:1066F0001A60002309E0059B01330593059A049B6A
:106700009A42E7D3052300E00023184607B05DF85E
:1067100004FB00BFB857002000B585B001900B46C0
:106720008DF803309DF8032001AB11461846FFF7A2
:10673000C1FF0346002B07D1019BDB00054A134430
:106740000393039B1B6800E00023184605B05DF827
:1067500004FB00BF68F0030084B001900B468DF885
:106760000330019BDB00174A134402939DF803306A
:10677000013B032B1CD801A252F823F08D670200C5
:10678000956702009D670200A767020002238DF84B
:106790000F3011E004238DF80F300DE0029B1B79C0
:1067A0008DF80F3008E0029B5B798DF80F3003E025
:1067B00000238DF80F3000BF9DF80F30184604B04D
:1067C000704700BF68F0030084B00190009100237F
:1067D0008DF80F30019B1B7803F00303DBB2002B15
:1067E00006D0019B1B7803F00403DBB2002B3DD0E5
:1067F000019B1B7803F00403DBB2002B21D0019B2B
:106800001B78C3F30103DBB2012B02D0022B0CD0A7
:1068100029E0009B1B68019A1288C2F38312D2B24E
:1068200013449A1C009B1A601DE0009B1B68019A90
:106830005288C2F3891292B213449A1C009B1A60C8
:1068400011E0009B1A68019B5B88C3F389139BB21C
:106850001946019B1B88C3F389139BB20B44134455
:106860005A1C009B1A6001238DF80F309DF80F30E1
:10687000184604B07047000000B58BB00023ADF897
:1068800026303B4801F050F93A4801F04DF93A4BB7
:106890005B680493384B9B680693049A069B1340ED
:1068A00002339B00344A13440433089304AB194663
:1068B0000898FFF789FF0346002B09D0049A069B2E
:1068C000134002339B002C4A134404330893EDE732
:1068D00000BF0023079311E0049B5A1C0492069A00
:1068E0001340079A920001A90A44234902339B00EE
:1068F0000B445B681360079B01330793079B012BD5
:10690000EAD99DF80430C3F30103DBB2012B10D0A8
:10691000022B1CD1BDF80A30ADF82630BDF8063088
:10692000C3F389139BB203339A08049B1344049363
:106930000EE0BDF80A30ADF82630BDF80430C3F3E0
:106940008313DBB21A46049B1344049300E000BF98
:10695000084801F0F5F80590059B002B02D0049B38
:10696000054A5360BDF8263018460BB05DF804FBAD
:10697000045E0020005E0020EC59002000B585B0C8
:106980000021074801F041F80390039B0293029B0A
:1069900083F310030193019B184605B05DF804FBD7
:1069A000085E002000B589B0039002910192009327
:1069B000039B1B0C0693FFF7E1FF0790079B19044D
:1069C000009B5A1C0A9B1340069A0A431B49023338
:1069D0009B000B445A60009A0A9B134002339B00B1
:1069E000164A134404330593039B03F00703D9B2FB
:1069F000059A137861F3C5031370019B03F00F032D
:106A0000D9B2059A138861F389131380029BC3F3EB
:106A10001501059A136861F39F231360059A137893
:106A2000012161F301031370059A13786FF3820358
:106A3000137000BF09B05DF804FB00BFEC590020E3
:106A400000B58DB00390029113468DF80730039B7B
:106A500002330A9301238DF8273000238DF81B3071
:106A60000DF11B03184600F009FF404B1A68029B0A
:106A70001A603E4B9A683D4B59683C4B1B68CB1AD9
:106A8000134401330B9314E00121394801F01CF841
:106A9000FFF7F2FE08900899354801F015F8334BDE
:106AA0009A68324B5968314B1B68CB1A1344013337
:106AB0000B930A9A0B9B9A42E6D89DF82730002B3D
:106AC00048D0002305939DF80730002B17D09DF880
:106AD0001430012262F301038DF814309DF8143054
:106AE00043F004038DF81430039B03F00F03DAB274
:106AF000BDF8143062F38913ADF8143016E09DF838
:106B00001430022262F301038DF814309DF8143022
:106B100043F004038DF81430039BC3F309039AB2C6
:106B2000BDF8163062F38F13ADF816300F4B1A68AC
:106B30000E4B9B68134002339B000C4A13440433F2
:106B40000793059A079B1A60084B1A680A9B13441F
:106B5000064A13609DF81B30184600F099FE9DF818
:106B6000273018460DB05DF804FB00BFEC5900203B
:106B7000085E002000B58BB005900491039202934B
:106B80001F4B9B68079306AB012219460298FFF73B
:106B900057FF0346002B24D0069B023309930023A2
:106BA000089311E0089B9B00039A1A44099B591C07
:106BB000099107990B401268114902339B000B445D
:106BC0005A60089B01330893089A029B9A42E9D3C2
:106BD000069A079B00931346029A04990598FFF7BB
:106BE000E1FE074B93F82034002B05D000BF00F0E6
:106BF00061F80346002BFAD100BF0BB05DF804FB2F
:106C0000EC59002000B583B00190009100230022D0
:106C100000990198FFF7AEFF00BF03B05DF804FBD9
:106C200000B587B0039002910192019B059305AADC
:106C3000012302990398FFF79DFF00BF07B05DF89D
:106C400004FB00B587B00390029101920093019B71
:106C50000493009B059304AA022302990398FFF76B
:106C600089FF00BF07B05DF804FB00B589B0039051
:106C7000029101920093019B0593009B06930A9B4E
:106C8000079305AA032302990398FFF773FF00BF38
:106C900009B05DF804FB0000054B5A68044B1B6803
:106CA0009A420CBF01230023DBB21846704700BF95
:106CB000EC59002000B599B0FFF7EEFF0346002B1A
:106CC00001D00023B4E1984B0022C3F81824BFF38D
:106CD0004F8F954B5B680493934B9B681093049A7A
:106CE000109B134002339B008F4A134404331293CA
:106CF000002317930023169300230F9304AB194628
:106D00001298FFF761FD0346002B14D0864B1A68DA
:106D1000049B9A4205D8844B1B68834A5360002326
:106D200086E1049A109B134002339B007E4A134471
:106D300004331293E2E700BF0023159311E0049B94
:106D40005A1C0492109A1340159A920001A90A4401
:106D5000754902339B000B445B681360159B01333C
:106D60001593159B012BEAD99DF8043003F003031A
:106D7000DBB2022B40F09C80BDF80630C3F38913D0
:106D80009BB20E93BDF80630C3F389139BB2502B10
:106D900028BF50239BB20D930D9BC3F309039AB2F6
:106DA000BDF8063062F38F13ADF806300D9B083343
:106DB0000C939DF80430C3F3C203DBB20F930C991C
:106DC0005A4801F07EFD1790179B002B00F0D080F1
:106DD000179801F006FE01A9169B0822179801F0EA
:106DE0009DFE169B08331693049BDA43109B1340B9
:106DF00001339B000B930D9A0B9B9A4242D90B9B3C
:106E0000002B08D0049A109B134002339B00464A83
:106E10001344043300E0464B0A930B9B002B02D033
:106E20000B9BDBB201E00D9BDBB28DF827300B9B97
:106E3000002B01D03E4B00E0002308930B9B002B5E
:106E400006D00D9BDAB20B9BDBB2D31ADBB200E0AB
:106E500000238DF81F309DF82720169B0A9917985C
:106E600001F05CFE9DF82730169A13441693089B98
:106E7000002B16D09DF81F20169B0899179801F03B
:106E80004DFE0EE0049A109B134002339B00264AED
:106E9000134404330693169B0D9A0699179801F034
:106EA0003DFE0E9B03339A08049B134404935FE05A
:106EB0009DF8043003F00303DBB2012B58D1BDF879
:106EC0000430C3F38313DBB2062B28BF0623DAB2E8
:106ED000BDF8043062F38913ADF80430BDF8043016
:106EE000C3F38313DBB2023305939DF80430C3F37D
:106EF000C203DBB20F93059B9B0019460B4801F0C0
:106F0000E0FC1790179B002B32D0179801F069FD19
:106F100001A9169B0822179801F000FE169B083362
:106F20001693002315931AE0EC59002020F103007A
:106F3000F8590020049B5A1C0492109A1340023303
:106F40009B003D4A1344191D169B0422179801F01B
:106F5000E5FD169B04331693159B01331593BDF87D
:106F60000430C3F38313DBB21A46159B9342E1D37B
:106F7000179B002B3FD0304BD3F8103414932E4B7B
:106F8000D3F81834002B1AD0179801F039FD49E0D6
:106F900000238DF84F301498FFF731FB0346002B88
:106FA00002D001238DF84F309DF84F30002B03D0D5
:106FB00017991498FFF7E2FA149B5B681493149BDB
:106FC000002BE5D1179801F01BFD00238DF803304D
:106FD0000DF10303184600F051FC174BD3F8183499
:106FE000002B02D1049B144A53609DF803301846CD
:106FF00000F04EFC16E0104BD3F81034119305E06E
:107000001198FFF7D5FA119B5B681193119B002B28
:10701000F6D10A4B1B881B0443F0020308491846AB
:10702000FFF7F0FDFFF738FE034683F00103DBB204
:10703000184619B05DF804FBEC590020DC5700201D
:1070400020F2030000B585B00023039322E0164B25
:10705000D3F81034029301238DF807300EE0029824
:10706000FFF7BEFA03461A46039B934203D100235F
:107070008DF8073005E0029B5B680293029B002BB2
:10708000EDD19DF80730002B01D0039B07E0039B57
:1070900001330393039B092BD9DD4FF0FF331846CF
:1070A00005B05DF804FB00BFEC59002000B585B0C9
:1070B00001900B468DF80330FFF7C4FF0390039B4C
:1070C000B3F1FF3F01D1039B1EE0039BDBB21946E6
:1070D0000198FFF779FA0E4BD3F81034002B07D143
:1070E0000B4A019BC2F81034019B00225A600AE04F
:1070F000074BD3F810345A68019B5A60044BD3F8FD
:107100001034019A5A60039B184605B05DF804FBE1
:10711000EC59002000B583B00C4BD3F81034019328
:107120000A4B012283F8202408E00198FFF75FFA58
:107130000198FFF731FA019B5B680193019B002BDB
:10714000F3D100BF03B05DF804FB00BFEC59002091
:1071500082B00190009100BF02B0704710B584B0BA
:1071600003900291039BDB88002B0AD0039BDB88F2
:107170001A461F4B009313461E4A1F49029800F0FF
:10718000ADFD039B1B7A052B2ED0039B5B7A002B56
:1071900012D0039B9B881A46039B1B7A1946104604
:1071A000FFF7DAFA03461A46144B53F822301A4610
:1071B0001349029800F092FD039B1B681946029840
:1071C000FFF7C6FF039B1B7A1A460E4B53F822406B
:1071D000039B9B8800211846FFF79EFA0346224630
:1071E0000949029800F07AFD00BF04B010BD00BF4D
:1071F00054F2030064F203009CF2030034580020B0
:10720000B4F2030020580020B8F2030000B585B0A6
:107210000390029113468DF80730039B1B7A052BD0
:107220000FD0039B5B7A002B06D00D4B1B681A46D0
:107230000C49029800F052FD0B49029800F04EFDF7
:1072400007E09DF80730002B03D00749029800F0B3
:1072500045FD029800F02AFD00BF05B05DF804FB73
:1072600034580020B4F20300C4F2030030B58BB0F0
:1072700007900691059204930E9B1B7B8DF8273097
:107280000E9B00221A730E990498FFF767FF059B67
:10729000062B7FD801A252F823F000BFB97202007A
:1072A000C3720200D3720200E7720200057302008B
:1072B0002D7302005D73020007990E9800F00EFD19
:1072C00069E0069B1B681A4607990E9800F006FDB8
:1072D00061E0069B1A68069B04331B6807990E98A9
:1072E00000F0FCFC57E0069B1A68069B0433196803
:1072F000069B08331B6800930B4607990E9800F015
:10730000EDFC48E0069B1968069B04331868069B51
:1073100008331B68069A0C321268019200930346E8
:107320000A4607990E9800F0D9FC34E0069B1868CD
:10733000069B04331C68069B08331B68069A0C32B4
:107340001268069910310968029101920093234650
:10735000024607990E9800F0C1FC1CE0069B1C68D1
:10736000069B04331D68069B08331B68069A0C3283
:107370001268069910310968069814300068039065
:107380000291019200932B46224607990E9800F035
:10739000A5FC00E000BF00220E990498FFF736FF1D
:1073A0000E9B9DF827201A7300BF0BB030BD00BFA5
:1073B00000B587B00390029101920093029B082BC5
:1073C0005CD8009B1B7B8DF81330009B00221A7346
:1073D00000990198FFF7C2FE0023059314E0059A77
:1073E000029B9A4209D2039A059B13441B781A46C2
:1073F0002449009800F072FC03E02349009800F053
:107400006DFC059B01330593059B072BE7D91F49AD
:10741000009800F063FC0023059322E0059A029B8C
:107420009A4217D2039A059B13441B788DF81230A9
:107430009DF81230184616F055FC0346002B02D07A
:107440009DF8123000E02E231A461149009800F0F2
:1074500045FC03E00F49009800F040FC059B013318
:107460000593059B072BD9D9012200990198FFF7B5
:10747000CDFE009B9DF813201A7300E000BF07B0FB
:107480005DF804FBC8F20300D0F20300D4F203005D
:10749000D8F20300DCF2030000B587B001900023AE
:1074A000039300230493019B059303AB1A46002129
:1074B00044F2010000F016F800BF07B05DF804FBCD
:1074C000BFF34F8F054BDB6803F4E0620349044BC5
:1074D0001343CB60BFF34F8F00BFFDE700ED00E02B
:1074E0000400FA0500B585B003900291019272B6CE
:1074F000FFF710FE00BFFFF7DDFB0346002BFAD1BC
:107500000F4B1B881B0443F001030E491846FFF77D
:1075100079FB0D4B1B6803F00103002B00D000BE6C
:10752000074B1B881B0443F0020308491846FFF76A
:1075300069FBFFF7C5FF00BF05B05DF804FB00BFA6
:10754000DC570020E0F20300F0ED00E0ECF2030075
:1075500000B585B00190019804F038FF0390039BBB
:107560001B7B002B05D0039B9B68039A1268104677
:10757000984700BF05B05DF804FB000000B58BB074
:1075800005900B4603928DF81330059B1B680793FB
:1075900000230993039B002B02D0059B002B01D1F4
:1075A000072330E0079B1B7B002B01D008232AE038
:1075B000079B5B68002B23D110220021079816F04F
:1075C00087FC9DF81330002B02D10023089301E0C3
:1075D00001230893079B039A9A600D4B0093079B26
:1075E000089A4FF47A710B4804F046FC0246079B58
:1075F0005A60079B5B68002B04D10E23099301E0BE
:10760000082300E0099B18460BB05DF804FB00BF9F
:1076100051750200FCF2030000B58BB00590049197
:107620000392059B0993099B5B680893089B002BB9
:1076300001D1082362E0099B1B7B002B07D008982F
:1076400004F0AEFE0346002B01D0002356E0099B58
:10765000039A1A60EFF305830793079B002B2DD045
:107660000023069306AA002300931346049A0921D7
:10767000089804F041FC0346012B01D004233DE0AF
:1076800003F05EFF014606AA0023009313460A4654
:107690000621089804F030FC0346012B01D0042396
:1076A0002CE0069B002B25D0164B4FF080525A60E1
:1076B00040BFBFF34F8FBFF36F8F1BE002230093D8
:1076C0000023049A0421089804F016FC0346012BB9
:1076D00001D0042312E003F029FF024602230093A5
:1076E00000230121089804F007FC0346012B01D078
:1076F000042303E0099B01221A73002318460BB0F0
:107700005DF804FB00ED00E000B589B00390039B39
:107710000793079B5B680693069B002B01D1082308
:1077200033E0EFF305830593059B002B1CD000236A
:10773000049304AA0023009313460022082106980C
:1077400004F0DAFB0346012B01D004231DE0049B67
:10775000002B16D00F4B4FF080525A6040BFBFF342
:107760004F8FBFF36F8F0CE00223009300230022A2
:107770000321069804F0C0FB0346012B01D004232B
:1077800003E0079B00221A730023184609B05DF836
:1077900004FB00BF00ED00E082B0EFF31083009324
:1077A000009B019372B6019B184602B0704762B607
:1077B00000BF704700B585B00190FFF7EDFF039063
:1077C000164B9B68002B1BD1144B01229A60144B63
:1077D000D3F88020134B1340104A1360104B114A0A
:1077E000C3F880200E4BD3F884300C4A53600C4B06
:1077F0004FF0FF32C3F88420019B00221A7002E090
:10780000019B01221A70039B002B01D1FFF7CFFFD0
:107810000023184605B05DF804FB00BF105E002091
:1078200000E100E0FC06FFBD00B585B003468DF821
:107830000730104B9B68002B16D09DF80730002BAB
:1078400012D1FFF7A9FF03900B4A0A4B1B68136084
:10785000094A084B5B685360064B00229A60039B01
:10786000002B01D1FFF7A3FF0023184605B05DF8F8
:1078700004FB00BF105E002000E100E000B583B013
:1078800001900198FFF796FF00BF03B05DF804FB7D
:1078900000B583B003468DF807309DF807301846D1
:1078A000FFF7C2FF00BF03B05DF804FB86B0019094
:1078B0000091019B53E8021F1FFAA1F2D88882426F
:1078C00002BFBFF32F8F00230DE0D88902449889AF
:1078D000824228BF121AC1EA024243E8022000286D
:1078E000E8D14FF001038DF80F300590029104921A
:1078F000029A009B1A609DF80F30DBB2184606B062
:10790000704784B00190019951E8023FC3EA2343D4
:1079100041E80232002AF7D10392029300BF04B07B
:10792000704700B585B001900091009B1946019801
:10793000FFF7BCFF0346002B07D0019B1B68009A92
:10794000528813440393039B00E00023184605B0BC
:107950005DF804FB00B583B001900091009B1A888C
:10796000009B5B889A4204D10198FFF7CAFF01236C
:1079700000E00023184603B05DF804FB00B585B0B5
:1079800001900091009B5B099B00019AD018009B1D
:1079900003F01F03012202FA03F3194600F04CF82A
:1079A000039000BF05B05DF804FB00B585B0019001
:1079B0000091009B5B099B00019AD018009B03F08B
:1079C0001F03012202FA03F3DB43194600F064F8B7
:1079D000039000BF05B05DF804FB82B001900091F8
:1079E000009B5B099B00019A13441A68009B03F0FB
:1079F0001F0322FA03F303F00103002B14BF01233A
:107A00000023DBB2184602B0704710B487B0019073
:107A10000091019B009A53E8004F104643E8000193
:107A200091F0000FF7D1059404900391059B18463F
:107A300007B05DF8044B704710B487B00190009117
:107A4000019B009A53E8004F44EA020043E800011A
:107A500091F0000FF6D1059404900391049B184611
:107A600007B05DF8044B704710B487B001900091E7
:107A7000019B009A53E8004F04EA020043E800012A
:107A800091F0000FF6D1059404900391059B1846E0
:107A900007B05DF8044B704710B487B001900091B7
:107AA000019B009A53E8004F04EA020043E80001FA
:107AB00091F0000FF6D1059404900391049B1846B1
:107AC00007B05DF8044B704710B487B00190009187
:107AD000019B009A53E8004F04EB020043E80001C9
:107AE00091F0000FF6D1059404900391049B184681
:107AF00007B05DF8044B704710B487B00190009157
:107B0000019B009A53E8004FA4EB020043E80001F8
:107B100091F0000FF6D1059404900391049B184650
:107B200007B05DF8044B704700B583B001900121A8
:107B30000198FFF781FF0346184603B05DF804FB88
:107B400000B583B0019000210198FFF78DFF034637
:107B5000184603B05DF804FB82B001900B468DF827
:107B60000330019BDA689DF803300199898A01FB93
:107B700003F31344184602B0704782B0019000919D
:107B8000009B019AD2689B1A019A928AB3FBF2F386
:107B9000DBB2184602B0704784B00190019B002B05
:107BA00001D10E2320E0019B9A68019B5B68D31AE8
:107BB0008DF80F30019B1B68019A52681A6007E02C
:107BC000019B1A681368591C11609DF80F201A70E8
:107BD0009DF80F305A1E8DF80F20002BF0D1019B1D
:107BE0001B6800221A710023184604B0704700B5C4
:107BF00085B001900023039300238DF80A300DF126
:107C00000A031846FFF73AFE019B1B681A68019B9E
:107C10005B689A421FD9019B1B681A68013A1A6077
:107C20001B681B7819460198FFF796FF0390019B8C
:107C30009A68019B1B681B68D31A8DF80B30019B57
:107C40001B681B799DF80B209A4204D9019B1B6885
:107C50009DF80B201A719DF80A301846FFF718FEA0
:107C6000039B184605B05DF804FB10B584B0019085
:107C70000091009B039300238DF80B300DF10B0353
:107C80001846FFF7FBFD019B1B681C68621C1A600D
:107C900003990198FFF771FF034623709DF80B309D
:107CA0001846FFF7F5FD00BF04B010BD00B583B066
:107CB0000190019B9B68002B0CD0019B5B69019A92
:107CC0001069019A1168019A92689847019B0022F5
:107CD0009A6000E000BF03B05DF804FB0EB400B58D
:107CE00084B00190059B002B0AD00023039306ABC0
:107CF000039303AB1A460599019800F0ADF900E033
:107D000000BF04B05DF804EB03B0704700B583B06A
:107D100001900B468DF80330019B1A68019B9B680C
:107D2000581C0199886013449DF803201A70019B28
:107D30009A68019B5B689A4202D30198FFF7B6FFED
:107D400000BF03B05DF804FB00B587B0039002915B
:107D50000192009300230593009B03F00103002B85
:107D600024D00BE0029B01330293059B0133059362
:107D70009DF8133019460398FFF7C8FF029B1B7844
:107D80008DF813309DF81330002BEBD106E0019BEA
:107D9000013B019320210398FFF7B8FF019A059B4F
:107DA0009A422ED9019B002BF1D12AE0029B002B95
:107DB0000BD0029816F008F9059006E0019B013BF4
:107DC000019320210398FFF7A1FF019A059B9A4296
:107DD0000FD9019B002BF1D10BE0029B01330293E1
:107DE000059B013305939DF8133019460398FFF75F
:107DF0008DFF029B1B788DF813309DF81330002BFC
:107E0000EBD100BF07B05DF804FB000000B589B0FE
:107E10000390029101920093029B07930123069322
:107E200007E0079A019BB2FBF3F30793069B01332C
:107E30000693079A019B9A42F3D2009A069B9A42B4
:107E400001D9009B06930B9B03F00103002B22D169
:107E50000A9B002B1FD00B9B03F00203002B06D0C4
:107E6000009B002B03D130238DF8173002E0202334
:107E70008DF8173008E00A9B013B0A939DF81730F4
:107E800019460398FFF742FF0A9B002B03D0069A7E
:107E90000A9B9A42EFD301230793009B012B03D93E
:107EA000009B013B009309E0029A079BB2FBF3F3AE
:107EB0000493049A019B9A4200D205E0079B019A21
:107EC00002FB03F30793E8E7029A079BB2FBF3F385
:107ED0000493049B079A02FB03F3029AD31A0293BA
:107EE000154A049B13441B7819460398FFF70EFFAD
:107EF000079A019BB2FBF3F30793079B002BE3D197
:107F00000B9B03F00103002B11D00A9B002B0ED01A
:107F100006E00A9B013B0A9320210398FFF7F6FE37
:107F20000A9B002B03D0069A0A9B9A42F1D300BF0A
:107F300009B05DF804FB00BF00F3030000B589B091
:107F40000590049103920293049B002BB8BF5B42FF
:107F500006930123079307E0039B069A92FBF3F332
:107F60000693079B01330793039B069A9A42F3DA21
:107F7000029A079B9A4201D9029B07930A9B002B06
:107F80000AD0049B002B04DB0B9B03F00403002BA3
:107F900002D00A9B013B0A930B9B03F00203002BC8
:107FA00002D0029B002B16D00B9B03F00103002B89
:107FB00011D10A9B002B0ED006E00A9B013B0A93CD
:107FC00020210598FFF7A2FE0A9B002B03D0079AF9
:107FD0000A9B9A42F1D3049B002B07DA049B5B4275
:107FE00004932D210598FFF791FE08E00B9B03F009
:107FF0000403002B03D02B210598FFF787FE0B9B72
:1080000003F00203002B19D00B9B03F00103002B9C
:1080100014D1029B002B11D10A9B002B0ED006E03D
:108020000A9B013B0A9330210598FFF76FFE0A9BDC
:10803000002B03D0079A0A9B9A42F1D304990B9B19
:1080400001930A9B0093029B039A0598FFF7DEFEBB
:1080500000BF09B05DF804FB00B58FB00590049136
:108060000392049B002B00F0E981049B1B788DF8A0
:108070003730049B013304939DF83730002B00F018
:10808000D4819DF83730252B40F0C38100230A931B
:1080900001230C93049B1B788DF837309DF8373003
:1080A0002D2B04D0302B0AD02B2B10D017E00A9B9D
:1080B00043F001030A93049B0133049312E00A9BEB
:1080C00043F002030A93049B013304930AE00A9BE2
:1080D00043F004030A93049B0133049302E000235A
:1080E0000C9300BF0C9B002BD4D1002309939DF867
:1080F00037302A2B0CD1039B1B68191D039A116082
:108100001B68099A13440993049B013304931AE0F2
:10811000049B1B788DF837309DF837302F2B12D900
:108120009DF83730392B0ED8049B01330493099AFC
:1081300013469B0013445B001A469DF837301344E6
:10814000303B0993D3E700230B93049B1B788DF8F6
:1081500037309DF837302E2B1DD1049B013304930B
:10816000049B1B788DF837309DF837302F2B12D9B0
:108170009DF83730392B0ED8049B013304930B9AAA
:1081800013469B0013445B001A469DF83730134496
:10819000303B0B93E4E7049B1B788DF837309DF858
:1081A00037306C2B03D09DF83730682B07D1049BF8
:1081B00001330493049B1B788DF83730EFE79DF86B
:1081C0003730253B532B00F21F8101A252F823F0D8
:1081D000FF8302000984020009840200098402006E
:1081E0000984020009840200098402000984020053
:1081F0000984020009840200098402000984020043
:108200000984020009840200098402000984020032
:108210000984020009840200098402000984020022
:108220000984020009840200098402000984020012
:108230000984020009840200098402000984020002
:1082400009840200098402000984020009840200F2
:1082500009840200098402000984020009840200E2
:1082600009840200098402000984020009840200D2
:1082700009840200098402000984020009840200C2
:1082800009840200098402000984020009840200B2
:108290000984020009840200098402008B83020021
:1082A0000984020009840200098402000984020092
:1082B0000984020009840200098402000984020082
:1082C0000984020009840200218302004383020022
:1082D0000984020009840200098402000984020062
:1082E0004383020009840200098402000984020019
:1082F000098402000984020009840200CB83020081
:108300000984020009840200AF830200098402008C
:108310006783020009840200098402008B83020043
:10832000039B1B68191D039A11601B680C930C9B1F
:108330008DF823309DF8233019460598FFF7E6FCA9
:1083400063E0039B1B68191D039A11601B680C9363
:108350000A9B0193099B00930B9B0A220C99059899
:10836000FFF7ECFD51E0039B1B68191D039A116098
:108370001B680C930C990A9B0193099B00930B9B20
:108380000A220598FFF742FD3FE0039B1B68191D79
:10839000039A11601B680C930C990A9B0193099B2B
:1083A00000930B9B10220598FFF730FD2DE0039BF7
:1083B0001B68191D039A11601B6807930A9B099A91
:1083C00007990598FFF7C0FC1FE0039B1B68191D68
:1083D000039A11601B680C9330210598FFF796FCF7
:1083E00078210598FFF792FC0C990023019308234C
:1083F0000093082310220598FFF708FD05E02521CA
:108400000598FFF783FC00E000BF049B0133049351
:1084100005E09DF8373019460598FFF777FC049B77
:108420001B78002B7FF421AE00E000BF059B1B7B77
:10843000002B04D00598FFF739FC00E000BF0FB017
:108440005DF804FB00B585B00190019B002B03D0C3
:10845000019B1B68002B28D10023039319E0039A8A
:1084600013469B0013449B001A46154B134401937B
:10847000019B1B68002B09D0019B1B68DB690198DD
:1084800098470346002B01D0012314E0039B0133DE
:1084900003930C4A0A4BD31A0B4AA2FB03231B0972
:1084A000039A9A42DBD3002305E0019B1B68DB693A
:1084B000019898470346184605B05DF804FB00BFD5
:1084C0001458002014580020CDCCCCCC29DF7047A4
:1084D00000BF184628DF704700BF184600B589B0B6
:1084E00001900091019B1B689B68002B35D002AB6B
:1084F00000221A605A609A60DA601A615A61009B21
:108500000393019B9B680793019B1B79002B02D06F
:10851000012B0DD01AE001238DF80830019B1B6957
:108520000493019BDB680593019B5B6906930DE057
:1085300002238DF80830019BDB684FF4805202FB68
:1085400003F30493019B5B69069300BF019B1B68C7
:108550009B6802AA1046984700E000BF09B05DF88A
:1085600004FB00B587B00190019B5A69019B9B6990
:10857000D31AB3F5805F28BF4FF4805305930422CC
:10858000059BB3FBF2F3012B38BF01230593019B3D
:108590001A69019B9B6913440493019BDB681A468B
:1085A000019B9B6913440393059A03990498FFF771
:1085B0008DFF0346184607B05DF804FB00B583B095
:1085C0000190019BDA68019B1B6913441846FFF771
:1085D00081FF0346184603B05DF804FB08B5034B62
:1085E00003491846FFF7B6F900BF08BD58580020E8
:1085F000345E002008B5084B08491846FFF791F98A
:108600000246074B1A60064B1B68002B14BF012360
:108610000023DBB2184608BD58580020345E002005
:10862000305E002000B583B02B4B1B7A002B0BD1A2
:10863000FFF7E0FF034683F00103DBB2002B03D01A
:10864000254B00225A6043E0234B02221A72234B2F
:108650001B681B79002B02D0012B07D00DE01F4BAC
:108660001B681846FFF77DFF019009E01B4B1B6854
:108670001846FFF7A3FF019002E00323019300BF18
:10868000019B002B03D0019B112B0CD00FE0124B50
:108690001B7C83F00103DBB2002B18D000210220E9
:1086A00000F070F813E00C4B01221A7210E00B4B33
:1086B0001B6803211846FFF711FF074B00221A72AF
:1086C000054B00225A60FFF789FF00BF00E000BFA2
:1086D00003B05DF804FB00BF1C5E0020305E00208C
:1086E00084B001901B4B0022DA60019B1B79002BA8
:1086F00002D0012B19D028E0019B5A69019B9B698C
:10870000D31AB3F5805F28BF4FF480530393019BC6
:108710009A69039B1A44019B9A61019B9A69019B88
:108720005B699A420ED1012310E0019B1B695A1C20
:10873000019B1A61019B1A69019B5B699A4203D1F3
:10874000012303E000BF00E000BF0023184604B08F
:10875000704700BF1C5E002082B00190084BDB68B0
:108760000133074AD360064BDB68082B04D9044B5E
:108770000022DA60012300E00023184602B07047AF
:108780001C5E002000B585B001900091019B022B7A
:1087900002D0019B032B4AD1274B1B7A012B36D0E9
:1087A000022B02D0002B35D142E000238DF80F3090
:1087B000019B022B03D0019B032B09D011E01F4B1F
:1087C0001B681846FFF78CFF03468DF80F3008E052
:1087D0001A4B1B681846FFF7BFFF03468DF80F3092
:1087E00000BF9DF80F30002B13D0134B00221A72DC
:1087F000124B1A68019B022B01D1002300E00D23CC
:1088000019461046FFF76AFEFFF7E8FE01E000BFD9
:1088100000E000BF084B5B7C83F00103DBB2002B60
:1088200002D0FFF7FFFE03E014F0CCFD00E000BF34
:1088300005B05DF804FB00BF1C5E0020305E002028
:1088400082B0034600918DF80730064B01225A741E
:10885000044B1B7A002B0CBF01230023DBB218460C
:1088600002B070471C5E002000B583B00346009143
:108870008DF807309DF80730012B03D09DF80730A5
:10888000032B0DD1084B00225A749DF80730012BA1
:108890000CBF01230023DAB2034B1A74FFF7C2FEA8
:1088A00000BF03B05DF804FB1C5E002000B583B080
:1088B00001900198FFF770F90346184603B05DF880
:1088C00004FB00B58BB001900091019B9B8A043B97
:1088D0000793009A079B1344DA1C079BB2FBF3F340
:1088E0008DF81B300198FFF782F90590059B002B4E
:1088F00001D1002338E0059B00221A71059B01225B
:108900005A71079B9AB2059BDA80059B09939DF8E3
:108910001B30013B0493099B019A1A6000230893C2
:108920001DE00198FFF763F90390039B002B0ED025
:10893000059B5B790133DAB2059B5A71099B039A57
:108940001A60039B019A1A60039B099304E005983F
:1089500000F00EF8002307E0089B01330893089A03
:10896000049B9A42DDD3059B18460BB05DF804FBCF
:1089700000B58BB00190019B0793079B5B798DF845
:108980001B30019B08939DF81B30013B059300238E
:10899000099305E0089B1B680893099B0133099321
:1089A000099A059B9A42F5D3089B1B680493019B87
:1089B0000893002309930BE0089B1B680393089915
:1089C0000498FFF752F9039B0893099B013309931D
:1089D0009DF81B30099A9A42EED300BF0BB05DF8A8
:1089E00004FB00B585B00190019B0393039B043306
:1089F00001211846FFF768F800BF05B05DF804FBD9
:108A000000B587B00190019B0593059B04330121BC
:108A10001846FFF771F80346039303AB0493049BD6
:108A20001B78002B02D10198FFF7A2FF00BF07B00F
:108A30005DF804FB00B58DB00390029101920093A4
:108A4000039B0693069BDB880593039B0B93009B7C
:108A50001A1D059BB2FBF3F30A93009B0433059A9E
:108A6000B3FBF2F2059901FB02F29B1A0993009AFB
:108A7000019B1A44059B1344DA1C059BB2FBF3F3DC
:108A80008DF8133005E00B9B1B680B930A9B013B91
:108A90000A930A9B002BF6D100230893059A099BA1
:108AA000D31A0793079A019B934228BF1346079353
:108AB0002DE09DF83830002B0BD0029A089BD0187F
:108AC0000B9A099B13440433079A194615F0D7F9FA
:108AD0000AE00B9A099B1344181D029A089B134441
:108AE000079A194615F0CBF9002309930B9B1B68D5
:108AF0000B93019A079BD31A0193089A079B13447F
:108B00000893059A019B934228BF13460793019B44
:108B1000002BCED100BF0DB05DF804FB00B587B0CF
:108B2000059004910392029300230093029B039A01
:108B300004990598FFF77EFF00BF07B05DF804FBBE
:108B400000B587B00590049103920293012300932E
:108B5000029B039A04990598FFF76CFF00BF07B0CA
:108B60005DF804FB82B001900091019B009A1A60AD
:108B7000019B1B681A68019B5A60019B5A68019B04
:108B80001B685B689A4202D1019B00225A6000BFB9
:108B900002B0704782B00190019B5B68002B14D03B
:108BA000019B5B681A46019B1B689B6813441A462D
:108BB000019B5A60019B5A68019B1B685B689A4243
:108BC00004D1019B00225A6000E000BF02B0704750
:108BD00000B585B00190019800F00EF80390039B5A
:108BE000002B01D0039B00E0024B184605B05DF856
:108BF00004FB00BFD4F4030086B00190164B05932C
:108C0000164B04931FE0049A059BD31ADB10DA0F6E
:108C100013445B10DB00059A13440393039B1B680A
:108C20000293029A019B9A4202D9039B04930AE0A1
:108C3000029A019B9A4203D2039B0833059302E0F8
:108C4000039B5B6804E0059A049B9A42DBD30023F4
:108C5000184606B0704700BFD4F80300FCF90300C3
:108C600082B001900091019B9B68009A9A4202D2C7
:108C7000009B013300E00023184602B0704784B027
:108C80000190019B1B681B680393019B1B685B6839
:108C90000293029A039B9A4203D3029A039BD31A2C
:108CA00006E0019B9A68039BD21A029B134401338E
:108CB000184604B0704710B58AB003900291019233
:108CC000039800F0BBF90990039B9A68039B1B680B
:108CD0005B68D31A01330893039B5B681946039BB7
:108CE0001B685B68039AD26802FB03F30B4407938B
:108CF000019A089B9A421DD8039BDB68019A02FBEC
:108D000003F31A460299079815F0B9F8039B1B68FC
:108D10005A68019B1A44039B9B689A4205D8039B9F
:108D20001B685A68019B134400E00023039A1268F1
:108D300053602FE0039BDA68089B02FB03F3069362
:108D4000069A0299079815F09AF8019A089BD31A87
:108D50000593039B5868029A069B13441946039B8C
:108D6000DB68059A02FB03F31A4615F088F8039BAB
:108D70001B68059A5A60099A019B9A420AD2039B82
:108D80001B685A68039B1C6811460398FFF768FF2D
:108D9000034623600398FFF772FF0490039B1B6850
:108DA0009B68049A9A4203D9039B1B68049A9A60B1
:108DB00000BF0AB010BD00B589B0039002910192C6
:108DC000019B0793019B002B01D1002328E0002386
:108DD0008DF817300DF117031846FEF74FFD039B72
:108DE0001B7C002B07D1039B9B68019A934228BFF1
:108DF0001346019309E0039800F020F90690019AC8
:108E0000069B934228BF13460193019A0299039847
:108E1000FFF751FF9DF817301846FEF739FD019B0B
:108E2000184609B05DF804FB00B58BB003900291C1
:108E30000192039B1B681B680993039B1B685B687B
:108E40000893099A089B9A4203D8089A099BD31A57
:108E500004E0039B9A68099BD31A01330793039B91
:108E60005B681946039BDB68099A02FB03F30B441A
:108E70000693019A079B9A4219D8039BDB68019AD3
:108E800002FB03F31A460699029814F0F8FF099AB8
:108E9000019B1A44039B9B689A4203D8099A019B41
:108EA000134400E00023039A1268136020E0039B40
:108EB000DA68079B02FB03F30593059A069902986B
:108EC00014F0DDFF019A079BD31A0493029A059BC5
:108ED00013441846039B5968039BDB68049A02FB02
:108EE00003F31A4614F0CBFF039B1B68049A1A6025
:108EF00000BF0BB05DF804FB00B587B00390029192
:108F0000019200230593019B002B01D100231CE05B
:108F100000238DF813300DF113031846FEF7AEFC55
:108F20000398FFF7ACFE0246019B934205D8019AD5
:108F300002990398FFF778FF01E0052305939DF858
:108F400013301846FEF7A4FC059B184607B05DF8E1
:108F500004FB00B589B0039002910192019B079335
:108F6000019B002B01D100231CE000238DF817305A
:108F70000DF117031846FEF781FC0398FFF77FFEFB
:108F80000690019A069B934228BF13460193019ACB
:108F900002990398FFF748FF9DF817301846FEF72F
:108FA00077FC019B184609B05DF804FB00B585B05D
:108FB000019000238DF80F300DF10F031846FEF7D6
:108FC0005DFC019B1B680C220021184614F080FFF9
:108FD0009DF80F301846FEF75BFC00BF05B05DF84A
:108FE00004FB00B585B0019000238DF80B300DF126
:108FF0000B031846FEF742FC0198FFF740FE039072
:109000009DF80B301846FEF743FC039B184605B04D
:109010005DF804FB84B00190019B1B681B680393FF
:10902000019B1B685B680293039A029B9A420CBFE8
:1090300001230023DBB2184604B0704710B582B09C
:109040000190019B9C680198FFF7CBFF0346E31A50
:10905000184602B010BD82B00190019B03F060433E
:10906000B3F1005F0CBF01230023DBB2184602B04E
:109070007047000000B583B00190019B1B781A4631
:109080000C4B9B5C002B05D0019B0433184606F06B
:1090900011F80BE0019B1B781A46064B9B5C002BDA
:1090A00004D1019B0C33184605F0B4F800BF03B09F
:1090B0005DF804FBF09F002000B587B0039002919B
:1090C00013468DF8073000230593039B1B781A463F
:1090D000114B9B5C002B09D0039B04339DF80720A8
:1090E0000299184606F014F805900FE0039B1B78D0
:1090F0001A46094B9B5C002B08D1039B0C339DF84F
:1091000007200299184605F0FBF80590059B1846C4
:1091100007B05DF804FB00BFF09F002000B585B0EC
:10912000019000238DF80F30019B1B781A46114BDC
:109130009B5C002B08D0019B0433184606F06AF8AC
:1091400003468DF80F300EE0019B1B781A46094B41
:109150009B5C002B07D1019B0C33184605F03CF9B2
:1091600003468DF80F309DF80F30184605B05DF8B6
:1091700004FB00BFF09F002000B587B00390029170
:1091800013468DF8073000230593039B1B781A467E
:10919000114B9B5C002B09D0039B04339DF80720E7
:1091A0000299184606F04EF805900FE0039B1B78D5
:1091B0001A46094B9B5C002B08D1039B0C339DF88E
:1091C00007200299184605F05FF90590059B18469F
:1091D00007B05DF804FB00BFF09F002000B583B02E
:1091E0000190019B1B781A46094B9B5C002B0BD10D
:1091F000019B1B781A46064B9B5C002B04D1019BFC
:109200000C33184605F02AFA00BF03B05DF804FBE2
:10921000F09F002082B00190019B00221A60BFF3F2
:109220005F8F00BF02B0704700B585B0019001218B
:109230000198FEF7EAFB0390BFF35F8F039B002BBF
:109240000CBF01230023DBB2184605B05DF804FB18
:1092500082B00190BFF35F8F019B00221A6000BFB4
:1092600002B0704700B583B001900B468DF8033013
:10927000019B5B691B68DB68002B08D0019B5B6965
:109280001B68DB689DF8032011460198984700BFD2
:1092900003B05DF804FB00B583B00190019B5B69EE
:1092A0001B681B78002B0BD0019B5B691B681B693B
:1092B000002B06D0019B5B691B681B69984700E087
:1092C00000BF03B05DF804FB00B58DB003900291C0
:1092D000019200230B93039B5B691B681B78002B97
:1092E0000ED1019BFF2B28BFFF230B93039B0B9AEF
:1092F000D2B202991846FFF7DFFE0A900B9B2CE0D2
:10930000039B5B691B685B685B680993039B5B69F4
:109310001B689B680893019A02990998FFF74BFD17
:109320000790039B1846FFF7F9FE0346002B01D078
:10933000079B12E0089B1968089B1B7A1A4609983C
:10934000FFF707FE06900398089B1B68069AD2B2A7
:109350001946FFF7B1FE0590079B18460DB05DF862
:1093600004FB00B58BB001900091009B0993019B19
:109370001B78012B04D0022B2FD0002B32D057E0CA
:10938000099B5B691B685B681B680893019B5968B4
:10939000019B1B7A1A460898FFF70DFD0790019B69
:1093A0001B7A1A46079B934204D203210998FFF7C0
:1093B00059FF3DE001210998FFF754FF099B5B69C4
:1093C0001B689B6806930998069B5968069B5B7A05
:1093D0001A46FFF7D1FE05902AE002210998FFF70F
:1093E00041FF25E0099B5B691B685B685B68049330
:1093F000099B5B691B689B68039300210998FFF731
:1094000031FF039B1968039B1B7A1A460498FFF7E8
:10941000A0FD0290029B002B09D00998039B1B68BA
:10942000029AD2B21946FFF747FE059000E000BF4E
:1094300000BF0BB05DF804FB00B58FB00390029144
:109440000192039B5B691B68002B01D0852389E097
:1094500005AB20220299184614F011FD039B0993D5
:10946000019B1B78022B0CBF01230023DBB28DF87C
:1094700031300398019B1B78002B01D03B4A00E060
:10948000002205AB194603F09FFA0D900D9B002BAF
:1094900001D00D9B66E0039B5B69019A1A60039BF8
:1094A0005B691B685B68002B0FD0039B5B691B68C3
:1094B0005B685B681846FFF779FD039B5B691B6877
:1094C0005B681B681846FFF771FD039B5B690833F7
:1094D0001846FFF79FFE039B5B6904331846FFF7AE
:1094E00099FE039B5B6903221A73059BB3F1FF3F4F
:1094F00008D1039B5B691A7B039B5B6922F0020224
:10950000D2B21A73069BB3F1FF3F0AD1039B5B698A
:109510001A7B039B5B6922F00102D2B21A7300230B
:1095200020E0039B5B691B681B78022B0BD0039B1D
:109530001846FFF753FE039B5B691B681B78002BE3
:1095400001D100230EE00398039B5B691B689B68B5
:109550005968039B5B691B689B685B7A1A46FFF737
:109560000BFE034618460FB05DF804FB6393020040
:1095700000B583B00190019B5B691B68002B01D192
:10958000802343E0019B5B6904331846FFF74CFEE0
:10959000034683F00103DBB2002B01D0112335E039
:1095A000019B5B6908331846FFF73EFE034683F0D4
:1095B0000103DBB2002B07D0019B5B690433184623
:1095C000FFF746FE112321E0019B1846FFF752FDED
:1095D000019B5B691B685B68002B0FD0019B5B697B
:1095E0001B685B685B681846FFF7E0FC019B5B69E2
:1095F0001B685B681B681846FFF7D8FC019B5B691A
:1096000010220021184614F063FC0023184603B012
:109610005DF804FB84B00190019B0393039B01223E
:109620001A7000BF04B0704700B587B00390029174
:1096300001920093019B9B0203F5FA73114AA2FB6E
:1096400003239B090593059B042B04D8009B01224F
:109650001A70002312E00C4A00210298FDF78EFFD9
:109660000490049B002B01D0049B07E0029B1B6825
:10967000009A05991846FDF7CFFF0346184607B034
:109680005DF804FBD34D62101596020000B58BB057
:109690000390029101920093039B5B691B68002B6E
:1096A00001D1802393E0039B5B691B7B03F00203E2
:1096B000002B01D108238AE0019B002B01D100235C
:1096C00085E00298FFF7C7FC034683F00103DBB295
:1096D000002B07D0039B5B691B681B78022B01D111
:1096E000102374E0039B5B6904331846FFF79CFD6D
:1096F000034683F00103DBB2002B01D0112366E0A7
:1097000000238DF814300C9BB3F1FF3F12D0039B64
:10971000996905AB0C9A0398FFF786FF0790079BA2
:10972000002B07D0039B5B6904331846FFF790FDBD
:10973000079B4CE0019B0993029B0893099A0899A7
:109740000398FFF7C1FD0690099A069BD31A099367
:10975000089A069B13440893099B002B0BD003988F
:10976000FFF799FD9DF81430DBB283F00103DBB203
:10977000002BE3D100E000BF009B002B04D0019A36
:10978000099BD21A009B1A609DF81430DBB283F05B
:109790000103DBB2002B09D00C9BB3F1FF3F05D0D6
:1097A000039B9B691B681846FDF7AEFF039B5B6933
:1097B00004331846FFF74CFD099B002B06D09DF89B
:1097C0001430DBB2002B01D00D2300E0002318463B
:1097D0000BB05DF804FB00B585B001900091019BD2
:1097E0005B691B68002B01D1802390E0019B5B69C2
:1097F0001B7B03F00203002B01D1082387E0019BB0
:109800005B691B681B78002B01D100237FE0019B63
:109810005B6904331846FFF707FD034683F0010335
:10982000DBB2002B01D0112371E000238DF808304A
:10983000009BB3F1FF3F12D0019B996902AB009AE4
:109840000198FFF7F1FE0390039B002B07D0019BCB
:109850005B6904331846FFF7FBFC039B57E0019B51
:109860005B691B685B685B681846FFF7D3FB0346C0
:10987000002B0BD0019B1846FFF750FC034683F0EA
:109880000103DBB2002B01D0012300E000238DF89F
:109890000B309DF80B3003F001038DF80B309DF871
:1098A0000B30002B0BD10198FFF7F5FC9DF8083029
:1098B000DBB283F00103DBB2002BD0D100E000BFAC
:1098C0009DF80830DBB283F00103DBB2002B09D036
:1098D000009BB3F1FF3F05D0019B9B691B681846B5
:1098E000FDF712FF019B5B6904331846FFF7B0FCDC
:1098F0009DF80B3083F00103DBB2002B06D09DF8FE
:109900000830DBB2002B01D00D2300E00023184605
:1099100005B05DF804FB0000BFF34F8F054BDB681B
:1099200003F4E0620349044B1343CB60BFF34F8F52
:1099300000BFFDE700ED00E00400FA05024B034A1A
:109940001A6000BF704700BF6C5800200090D00321
:1099500008B500F095F90346002B06D0B64B1B68FE
:109960001B0AB64A03F01F03136000F0B5F9034663
:10997000002B02D0B24BB34A1A6000F0C9F903467B
:10998000002B06D0B04B1B685B0BB04A03F00703FB
:10999000136000F0E9F90346002B05D0AC4BDB68FF
:1099A000AB4A23F08073D36000F0FAF90346002B32
:1099B0000ED04FF080430022C3F80C214FF08043BB
:1099C0000022C3F810214FF080430022C3F838254D
:1099D00000F012FA0346002B02D09E4B03221A60BD
:1099E00000F026FA0346002B0BD09B4B05221A6091
:1099F0009A4B01221A609A4B00221A60994B3F221F
:109A00001A6000F031FA0346002B76D04FF08053F5
:109A1000954AD3F80434C2F820354FF08053924A67
:109A2000D3F80834C2F824354FF080538E4AD3F867
:109A30000C34C2F828354FF080538B4AD3F81034D9
:109A4000C2F82C354FF08053874AD3F81434C2F84B
:109A500030354FF08053844AD3F81834C2F8343587
:109A60004FF08053804AD3F81C34C2F840354FF091
:109A700080537D4AD3F82034C2F844354FF08053E8
:109A8000794AD3F82434C2F848354FF08053764AE7
:109A9000D3F82834C2F84C354FF08053724AD3F8CB
:109AA0002C34C2F850354FF080536F4AD3F830341D
:109AB000C2F854354FF080536B4AD3F83434C2F8AF
:109AC00060354FF08053684AD3F83834C2F86435B3
:109AD0004FF08053644AD3F83C34C2F868354FF0F5
:109AE0008053614AD3F84034C2F86C354FF080534C
:109AF0005D4AD3F84434C2F8703500F0D1F903461A
:109B0000002B05D0594B1B68594A03F04F031360D3
:109B100000F0F2F90346002B0DD04FF08043D3F84C
:109B2000003403F00103002B05D04FF080436FF0A9
:109B30000102C3F8002400F00BFA0346002B05D005
:109B40004C4B1B684B4A43F4806313604A4BD3F879
:109B50008830494A43F47003C2F88830BFF34F8F0E
:109B6000BFF36F8F4FF01023D3F80C3203F00103D3
:109B7000012B25D1414B0122C3F8042500BF3F4BE7
:109B8000D3F80034002BFAD04FF01023D3F80C3266
:109B90004FF0102223F00103C2F80C3200BF374B04
:109BA000D3F80034002BFAD0344B0022C3F804253C
:109BB00000BF324BD3F80034002BFAD0FFF7ACFED5
:109BC0004FF01023D3F80032002B05DB4FF01023A9
:109BD000D3F80432002B2BDA284B0122C3F80425DA
:109BE00000BF264BD3F80034002BFAD04FF01023DF
:109BF0001522C3F8002200BF204BD3F80034002BFD
:109C0000FAD04FF010231522C3F8042200BF1B4BDB
:109C1000D3F80034002BFAD0184B0022C3F80425E7
:109C200000BF164BD3F80034002BFAD0FFF774FEB8
:109C3000FFF784FE00BF08BD24030010403501403B
:109C400074C007400DF0ADBA440200103C0500405E
:109C5000F0ED00E0A005004010560040885600409E
:109C6000185600401456004000C000405802001032
:109C7000E40E00403C17004000ED00E000E0014031
:109C8000124B1B68DBB2062B1DD1114B1B6803F076
:109C90000F03002B17D10F4B1B6803F0F003302B81
:109CA00001D1012310E00B4B1B6803F0F003402BA4
:109CB00001D1012308E0074B1B6803F0F003502B90
:109CC00001D1012300E0002318467047E00F00F0A7
:109CD000E40F00F0E80F00F00A4B1B68DBB2062B24
:109CE0000DD1094B1B6803F00F03002B07D1074B65
:109CF0001B6803F0F003302B01D1012300E00023A7
:109D000018467047E00F00F0E40F00F0E80F00F095
:109D1000124B1B68DBB2062B1DD1114B1B6803F0E5
:109D20000F03002B17D10F4B1B6803F0F003302BF0
:109D300001D1012310E00B4B1B6803F0F003402B13
:109D400001D1012308E0074B1B6803F0F003502BFF
:109D500001D1012300E0002318467047E00F00F016
:109D6000E40F00F0E80F00F00A4B1B68DBB2062B93
:109D70000DD1094B1B6803F00F03002B07D1074BD4
:109D80001B6803F0F003302B01D1012300E0002316
:109D900018467047E00F00F0E40F00F0E80F00F005
:109DA000124B1B68DBB2062B1DD1114B1B6803F055
:109DB0000F03002B17D10F4B1B6803F0F003302B60
:109DC00001D1012310E00B4B1B6803F0F003402B83
:109DD00001D1012308E0074B1B6803F0F003502B6F
:109DE00001D1012300E0002318467047E00F00F086
:109DF000E40F00F0E80F00F00A4B1B68DBB2062B03
:109E00000DD1094B1B6803F00F03002B07D1074B43
:109E10001B6803F0F003302B01D1012300E0002385
:109E200018467047E00F00F0E40F00F0E80F00F074
:109E30000A4B1B68DBB2062B0DD1094B1B6803F0E4
:109E40000F03002B07D1074B1B6803F0F003302BE7
:109E500001D1012300E0002318467047E00F00F015
:109E6000E40F00F0E80F00F00A4B1B68DBB2062B92
:109E70000DD1094B1B6803F00F03002B07D1074BD3
:109E80001B6803F0F003502B01D1012300E00023F5
:109E900018467047E00F00F0E40F00F0E80F00F004
:109EA000124B1B68DBB2062B1DD1114B1B6803F054
:109EB0000F03002B17D10F4B1B6803F0F003302B5F
:109EC00001D1012310E00B4B1B6803F0F003402B82
:109ED00001D1012308E0074B1B6803F0F003502B6E
:109EE00001D1012300E0002318467047E00F00F085
:109EF000E40F00F0E80F00F0124B1B68DBB2062BFA
:109F00001DD1114B1B6803F00F03002B17D10F4B12
:109F10001B6803F0F003302B01D1012310E00B4B41
:109F20001B6803F0F003402B01D1012308E0074B2D
:109F30001B6803F0F003502B01D1012300E0002344
:109F400018467047E00F00F0E40F00F0E80F00F053
:109F5000064B1B68062B05D1054B1B68062B01D150
:109F6000012300E000231846704700BF30010010B5
:109F70003401001000B585B0019000230393019BCC
:109F800003F00703002B04D0019B23F007030833E1
:109F9000019301F033FA164B1B68002B05D1154BCA
:109FA00023F007031A46124B1A60134B1A68019BE1
:109FB000134443F6F772934213D80F4B1A68019B70
:109FC0001A440D4B1B689A420BD9094B1A680A4B6D
:109FD0001B6813440393084B1A68019B1344064AF9
:109FE000136001F015FA039B184605B05DF804FBF9
:109FF0003C9E0020405E0020389E002082B00190F0
:10A0000000BF02B0704782B00190019B03F10802CB
:10A01000019B5A60019B4FF0FF329A60019B03F154
:10A020000802019BDA60019B03F10802019B1A619F
:10A03000019B00221A6000BF02B0704782B00190FD
:10A04000019B00221A6100BF02B0704784B00190EA
:10A050000091019B5B680393009B039A5A60039BEA
:10A060009A68009B9A60039B9B68009A5A60039BC6
:10A07000009A9A60009B019A1A61019B1B685A1C06
:10A08000019B1A6000BF04B0704784B0019000913A
:10A09000009B1B680293029BB3F1FF3F03D1019B1E
:10A0A0001B6903930CE0019B0833039302E0039BBD
:10A0B0005B680393039B5B681B68029A9A42F6D223
:10A0C000039B5A68009B5A60009B5B68009A9A60E9
:10A0D000009B039A9A60039B009A5A60009B019A26
:10A0E0001A61019B1B685A1C019B1A6000BF04B0D7
:10A0F000704784B00190019B1B690393019B5B68CF
:10A10000019A92689A60019B9B68019A52685A6012
:10A11000039B5B68019A9A4203D1019B9A68039B57
:10A120005A60019B00221A61039B1B685A1E039B05
:10A130001A60039B1B68184604B070470848006803
:10A1400080F3088862B661B6BFF34F8FBFF36F8F9D
:10A150004FF4F07080F3118800DF00BF00BF0000F3
:10A1600000600200074B19680868B0E8F04F80F300
:10A170000988BFF36F8F4FF0000080F3118870479C
:10A1800000BF0000949E0020EFF30980BFF36F8FA3
:10A19000154B1A681EF0100F08BF20ED108A20E939
:10A1A000F04F10604DF8043D4FF0400080F31188EF
:10A1B000BFF34F8FBFF36F8F01F074FA4FF00000C1
:10A1C00080F3118808BC19680868B0E8F04F1EF0E9
:10A1D000100F08BFB0EC108A80F30988BFF36F8FAF
:10A1E000704700BF00BF0000949E002082B003466D
:10A1F00000918DF807309DF90730002B0CDA009B99
:10A20000DAB20C499DF8073003F00F03043B52010A
:10A21000D2B20B441A7609E0009BDAB206499DF9E6
:10A2200007305201D2B20B4483F8002300BF02B0C2
:10A23000704700BF00ED00E000E100E084B0039053
:10A2400002910192039B043B0393002343F080732C
:10A250001A46039B1A60039B043B0393029A039BD9
:10A260001A60039B043B03930B4A039B1A60039BF6
:10A27000143B0393019A039B1A60039B043B0393D3
:10A28000039B6FF002021A60039B203B0393039B26
:10A29000184604B0704700BF9DA2020082B0402360
:10A2A0000193019B83F31188FEE7000008B50F219D
:10A2B0006FF00100FFF79AFF00F02AF90B4B002224
:10A2C0001A6000F03DF80A4B5B68094A43F04043CE
:10A2D0005360084B1B69074A43F010031361FFF7F3
:10A2E0002DFFFFF7DBFF0023184608BD409E00202E
:10A2F00030EF00E000ED00E082B040230193019BCD
:10A3000083F31188034B1B680133024A136000BFBB
:10A3100002B07047409E002082B0084B1B68013B92
:10A32000064A1360054B1B68002B04D100230193E0
:10A33000019B83F3118800BF02B07047409E00204C
:10A34000044BD3F88830034A43F47003C2F88830D2
:10A3500000BF704700ED00E082B003468DF8073083
:10A360009DF8073003F01F0205499DF907305B098E
:10A37000012000FA02F241F8232000BF02B070472A
:10A3800000E100E082B0034600918DF807309DF9AE
:10A390000730002B0CDA009BDAB20C499DF807302D
:10A3A00003F00F03043B5201D2B20B441A7609E0CA
:10A3B000009BDAB206499DF907305201D2B20B4434
:10A3C00083F8002300BF02B0704700BF00ED00E03B
:10A3D00000E100E084B0EFF311830193019B03934C
:10A3E00040230293029B83F31188039B184604B019
:10A3F000704782B001900091019B009AC3F804233A
:10A4000000BF02B0704784B001900B46ADF8023037
:10A41000BDF80230019A134400221A60BDF80230E0
:10A42000019A13441B680393039B00BF04B0704759
:10A4300082B00190019BD3F80435184602B07047F2
:10A4400082B001900091019B009AC3F8082500BFDB
:10A4500002B0704782B001900B468DF803309DF832
:10A460000320019B13441A460123136000BF02B06E
:10A47000704782B001900091019B009AC3F8442379
:10A4800000BF02B07047000000B587B000230593FD
:10A49000FFF7A0FF03901C48FFF7CAFF02904FF49C
:10A4A00080711948FFF7AFFF01F040F80246029BA8
:10A4B0009B1A23F07F430493049B012B0DD901F0D9
:10A4C000C7FA0346022B08D00123049305E001F0EC
:10A4D00043F80246059B13430593049B5A1E0492BE
:10A4E000002BF4D1059B002B04D0084B4FF0805279
:10A4F0005A6040BF039B0193019B83F3118800BF07
:10A5000007B05DF804FB00BF0010014000ED00E063
:10A5100008B5002002F006F91F210E48FFF790FF52
:10A5200001210C48FFF765FF08210A48FFF792FF59
:10A5300000210848FFF78EFF02210648FFF799FF28
:10A540000F211120FFF71EFF1120FFF705FF00BFAD
:10A5500008BD00BF0010014084B0EFF311830193E8
:10A56000019B039340230293029B83F31188039B77
:10A57000184604B07047000000B585B00190009106
:10A58000019B0393FFF7B8FE039B1A68039BDB6BE9
:10A590000399096C01FB03F31A44039B5A60039B64
:10A5A00000229A63039B1A68039B9A60039B1A68B4
:10A5B000039BDB6B013B0399096C01FB03F31A441A
:10A5C000039BDA60039BFF2283F84420039BFF2256
:10A5D00083F84520009B002B15D1039B1B69002BA2
:10A5E0001BD0039B1033184601F0CCF80346002B18
:10A5F00013D00D4B4FF080525A6040BFBFF34F8FC6
:10A60000BFF36F8F09E0039B10331846FFF7FBFC85
:10A61000039B24331846FFF7F6FCFFF77DFE01236A
:10A62000184605B05DF804FB00ED00E000B58BB006
:10A630000590049113468DF80F30049B002B02D136
:10A640000023099304E0059B049A02FB03F309939A
:10A65000099B48331846FFF78DFC0890089B002B98
:10A660000CD0089B483307939DF80F20089B00935C
:10A670001346079A0499059800F005F8089B1846B8
:10A680000BB05DF804FB00B585B003900291019218
:10A690008DF80330029B002B03D1069B069A1A60AB
:10A6A00002E0069B019A1A60069B039ADA63069BF6
:10A6B000029A1A6401210698FFF75EFF00BF05B0F9
:10A6C0005DF804FB00B583B00190019B002B0ED018
:10A6D000019B00225A60019B00221A60019B00220C
:10A6E000DA60002300220021019800F01DF800BF6D
:10A6F00003B05DF804FB00B587B003468DF8073062
:10A7000001230593002304939DF807301A4604990A
:10A710000598FFF78BFF03900398FFF7D3FF039B88
:10A72000184607B05DF804FB00B58BB003900291AA
:10A730000192009300230993039B0893FFF7DCFD2C
:10A74000089B9A6B089BDB6B9A4202D3009B022BFF
:10A750002BD1009A0299089800F05BFA0790089BA9
:10A760005B6A002B11D0089B2433184601F00AF8CD
:10A770000346002B15D0404B4FF080525A6040BF2B
:10A78000BFF34F8FBFF36F8F0BE0079B002B08D0F9
:10A79000394B4FF080525A6040BFBFF34F8FBFF329
:10A7A0006F8FFFF7B9FD012362E0019B002B03D1FE
:10A7B000FFF7B2FD00235BE0099B002B05D105AB41
:10A7C000184601F033F801230993FFF7A5FD00F0C7
:10A7D00015FEFFF791FD089B93F844305BB2B3F18F
:10A7E000FF3F03D1089B002283F84420089B93F885
:10A7F00045305BB2B3F1FF3F03D1089B002283F8E1
:10A800004520FFF789FD01AA05AB1146184601F066
:10A810001FF80346002B25D1089800F0F4FA0346F0
:10A82000002B19D0089B1033019A1146184600F0EE
:10A8300077FF089800F07BFA00F0EAFD0346002B52
:10A840007FF47CAF0C4B4FF080525A6040BFBFF397
:10A850004F8FBFF36F8F71E7089800F068FA00F030
:10A86000D7FD6BE7089800F062FA00F0D1FD0023F5
:10A8700018460BB05DF804FB00ED00E000B58BB0AE
:10A880000390029101920093039B0893FFF764FEEB
:10A890000790089B9A6B089BDB6B9A4202D3009B44
:10A8A000022B2CD1089B93F845308DF81B30009A71
:10A8B0000299089800F0ADF99DF91B30B3F1FF3F04
:10A8C00012D1089B5B6A002B16D0089B24331846D4
:10A8D00000F058FF0346002B0ED0019B002B0BD03D
:10A8E000019B01221A6007E09DF81B300133DBB2A7
:10A8F0005AB2089B83F845200123099301E0002305
:10A900000993079B0593059B83F31188099B1846C0
:10A910000BB05DF804FB000000B58BB00390029112
:10A92000019200230993039B0893FFF7E5FC089B22
:10A930009B6B0793079B002B20D00299089800F08F
:10A94000D1F9079B5A1E089B9A63089B1B69002B31
:10A9500010D0089B1033184600F014FF0346002B5C
:10A9600008D03D4B4FF080525A6040BFBFF34F8F2D
:10A97000BFF36F8FFFF7D0FC012368E0019B002B32
:10A9800003D1FFF7C9FC002361E0099B002B05D12F
:10A9900005AB184600F04AFF01230993FFF7BCFC02
:10A9A00000F02CFDFFF7A8FC089B93F844305BB245
:10A9B000B3F1FF3F03D1089B002283F84420089B9A
:10A9C00093F845305BB2B3F1FF3F03D1089B0022FF
:10A9D00083F84520FFF7A0FC01AA05AB11461846F5
:10A9E00000F036FF0346002B24D1089800F0F6F95A
:10A9F0000346002B18D0089B2433019A11461846B1
:10AA000000F08EFE089800F092F900F001FD034678
:10AA1000002B8AD1104B4FF080525A6040BFBFF3D9
:10AA20004F8FBFF36F8F80E7089800F080F900F038
:10AA3000EFFC7AE7089800F07AF900F0E9FC089852
:10AA400000F0CCF90346002B3FF46FAF002318460B
:10AA50000BB05DF804FB00BF00ED00E000B58BB06B
:10AA60000190009100230993019B07930023089311
:10AA7000FFF742FC079B9B6B0693069B002B25D0A0
:10AA8000069B5A1E079B9A63079B1B68002B04D1E9
:10AA900001F05CF90246079B5A60079B1B69002B7B
:10AAA00010D0079B1033184600F06CFE0346002BB5
:10AAB00008D04D4B4FF080525A6040BFBFF34F8FCC
:10AAC000BFF36F8FFFF728FC012388E0009B002B6A
:10AAD00003D1FFF721FC002381E0099B002B05D166
:10AAE00003AB184600F0A2FE01230993FFF714FC04
:10AAF00000F084FCFFF700FC079B93F844305BB246
:10AB0000B3F1FF3F03D1079B002283F84420079B4A
:10AB100093F845305BB2B3F1FF3F03D1079B0022AE
:10AB200083F84520FFF7F8FB6A4603AB1146184649
:10AB300000F08EFE0346002B33D1079800F04EF94B
:10AB40000346002B27D0079B1B68002B09D1FFF77A
:10AB5000D3FB079B5B68184600F094FF0890FFF753
:10AB6000DBFB079B2433009A1146184600F0D8FD02
:10AB7000079800F0DCF800F04BFC0346002B7FF454
:10AB800077AF194B4FF080525A6040BFBFF34F8FE1
:10AB9000BFF36F8F6CE7079800F0C9F800F038FC3E
:10ABA00066E7079800F0C3F800F032FC079800F061
:10ABB00015F90346002B3FF45BAF089B002B0DD02B
:10ABC000FFF79AFB079800F011F80590079B5B6868
:10ABD0000599184601F03EF8FFF79EFB0023184642
:10ABE0000BB05DF804FB00BF00ED00E084B0019005
:10ABF000019B5B6A002B06D0019B1B6B1B68C3F19A
:10AC00000503039301E000230393039B184604B05C
:10AC1000704700B587B0039002910192002305931D
:10AC2000039B9B6B0493039B1B6C002B0DD1039B1D
:10AC30001B68002B4DD1039B5B68184600F0A6FFF4
:10AC40000590039B00225A6043E0019B002B19D121
:10AC5000039B9868039B1B6C1A46029913F00FF92B
:10AC6000039B9A68039B1B6C1A44039B9A60039B8B
:10AC70009A68039B5B689A422BD3039B1A68039BD9
:10AC80009A6026E0039BD868039B1B6C1A460299C6
:10AC900013F0F5F8039BDA68039B1B6C5B421A44C4
:10ACA000039BDA60039BDA68039B1B689A4207D216
:10ACB000039B5A68039B1B6C5B421A44039BDA603C
:10ACC000019B022B05D1049B002B02D0049B013B6E
:10ACD0000493049B5A1C039B9A63059B184607B078
:10ACE0005DF804FB00B583B001900091019B1B6CE3
:10ACF000002B18D0019BDA68019B1B6C1A44019B46
:10AD0000DA60019BDA68019B5B689A4203D3019B7E
:10AD10001A68019BDA60019BD968019B1B6C1A467B
:10AD2000009813F0ACF800BF03B05DF804FB00B569
:10AD300085B00190FFF7E0FA019B93F845308DF85C
:10AD40000F3013E0019B5B6A002B14D0019B24336E
:10AD5000184600F017FD0346002B01D000F0BEFDA1
:10AD60009DF80F30013BDBB28DF80F309DF90F30AD
:10AD7000002BE7DC00E000BF019BFF2283F84520A9
:10AD8000FFF7CAFAFFF7B8FA019B93F844308DF841
:10AD90000E3013E0019B1B69002B14D0019B103374
:10ADA000184600F0EFFC0346002B01D000F096FDA2
:10ADB0009DF80E30013BDBB28DF80E309DF90E3060
:10ADC000002BE7DC00E000BF019BFF2283F844205A
:10ADD000FFF7A2FA00BF05B05DF804FB00B585B02F
:10ADE0000190FFF789FA019B9B6B002B02D1012395
:10ADF000039301E000230393FFF78EFA039B1846A9
:10AE000005B05DF804FB00B585B00190FFF774FA5A
:10AE1000019B9A6B019BDB6B9A4202D10123039346
:10AE200001E000230393FFF777FA039B184605B070
:10AE30005DF804FB84B0019000910023039314E0BB
:10AE40000D4A039B52F83330002B0BD10A49039B68
:10AE5000009A41F83320084A039BDB001344019A0F
:10AE60005A6005E0039B01330393039B092BE7D949
:10AE700000BF04B0704700BF449E002000B587B0FB
:10AE8000039002910192039B0593FFF735FA059B0E
:10AE900093F844305BB2B3F1FF3F03D1059B00222E
:10AEA00083F84420059B93F845305BB2B3F1FF3F34
:10AEB00003D1059B002283F84520FFF72DFA059B5F
:10AEC0009B6B002B06D1059B2433019A02991846EF
:10AED00000F03CFC0598FFF72AFF00BF07B05DF8C3
:10AEE00004FB84B0EFF311830193019B0393402390
:10AEF0000293029B83F31188039B184604B07047AA
:10AF000000B58DB00790069104931346ADF8163046
:10AF1000BDF816309B001846FFF72CF80990099BE6
:10AF2000002B0ED05420FFF725F80B900B9B002B25
:10AF300003D00B9B099A1A6305E00998FFF75EF8A6
:10AF400001E000230B930B9B002B14D0BDF81620BF
:10AF5000002303930B9B02930F9B01930E9B009383
:10AF6000049B0699079800F00EF80B9800F082F801
:10AF700001230A9302E04FF0FF330A930A9B18461D
:10AF80000DB05DF804FB00B587B00390029101920B
:10AF900000930A9B186B019B9B001A46A52112F097
:10AFA00097FF0A9B1A6B019B03F18043013B9B00B7
:10AFB00013440493049B23F0070304930023059395
:10AFC00012E0029A059B134419780A9A059B1344D0
:10AFD00034330A461A70029A059B13441B78002BDF
:10AFE00006D0059B01330593059B0F2BE9D900E0A3
:10AFF00000BF0A9B002283F84320089B042B01D941
:10B00000042308930A9B089ADA620A9B089A5A64F6
:10B010000A9B00229A640A9B04331846FFF70EF835
:10B020000A9B18331846FFF709F80A9B0A9A1A6117
:10B03000089BC3F105020A9B9A610A9B0A9A5A620D
:10B040000A9B0022DA640A9B002283F85020009AAF
:10B0500003990498FFF7F2F802460A9B1A60099BCD
:10B06000002B02D0099B0A9A1A6000BF07B05DF856
:10B0700004FB000000B583B00190FFF73DF92B4BB6
:10B080001B680133294A1360294B1B68002B09D127
:10B09000274A019B1360254B1B68012B10D100F040
:10B0A0003DFC0DE0234B1B68002B09D1204B1B6896
:10B0B000DA6A019BDB6A9A4202D81D4A019B13603F
:10B0C0001D4B1B6801331C4A1360019BDB6A012284
:10B0D0009A401A4B1B681343184A1360019BDA6AA3
:10B0E00013469B0013449B00154A1A44019B0433EA
:10B0F00019461046FEF7AAFFFFF70EF90D4B1B6825
:10B10000002B0FD00A4B1B68DA6A019BDB6A9A425C
:10B1100008D20C4B4FF080525A6040BFBFF34F8FA4
:10B12000BFF36F8F00BF03B05DF804FB6C9F00207E
:10B13000949E0020789F0020889F0020749F00200C
:10B14000989E002000ED00E000B585B0019000233E
:10B150000393019B002B08D000F050F900210198C7
:10B1600000F004FE00F054F90390039B002B08D17B
:10B17000064B4FF080525A6040BFBFF34F8FBFF372
:10B180006F8F00BF05B05DF804FB00BF00ED00E06D
:10B1900000B585B00190FFF7AFF8019B002B02D1FD
:10B1A000354B1B6800E0019B0393039B0433184657
:10B1B000FEF79FFF0346002B15D1039BDA6A2F4948
:10B1C00013469B0013449B000B441B68002B0AD1C1
:10B1D000039BDB6A012202FA03F3DA43284B1B6864
:10B1E0001340274A1360039B9B6A002B04D0039BE8
:10B1F00018331846FEF77DFF039B04331946214898
:10B20000FEF724FF039B93F85030DBB2012B03D1F0
:10B21000039B002283F85020FFF77EF81A4B1B682F
:10B22000002B05D0FFF768F800F0F2FBFFF774F889
:10B23000114B1B68039A9A4219D1134B1B68002BC0
:10B2400009D0124B4FF080525A6040BFBFF34F8F6E
:10B25000BFF36F8F0BE00B4B1A680D4B1B689A42C4
:10B2600003D1054B00221A6001E000F01BFA00BF79
:10B2700005B05DF804FB00BF949E0020989E00205E
:10B28000749F0020589F0020789F002000ED00E070
:10B290006C9F002084B0019000230393019B0293D4
:10B2A000029B5B690D4A934201D1012300E0002318
:10B2B000002B0FD0029B9B6A094A93420AD0029B43
:10B2C0009B6A002B01D1012300E00023002B01D059
:10B2D00001230393039B184604B07047589F002036
:10B2E0002C9F002000B587B0019000230593019B9F
:10B2F0000493FFF7F6FD03900498FFF7CBFF034696
:10B30000002B2FD01C4B1B68002B25D1049BDA6A25
:10B310001A4B1B68DB6A9A4201D301230593049BF5
:10B3200004331846FEF7E5FE049BDB6A01229A40CF
:10B33000134B1B681343124A1360049BDA6A1346CB
:10B340009B0013449B000F4A1A44049B0433194684
:10B350001046FEF77BFE05E0049B183319460A48A9
:10B36000FEF774FE039B0293029B83F31188059BF7
:10B37000184607B05DF804FB949F0020949E0020BF
:10B38000749F0020989E00202C9F002000B585B05F
:10B39000144B0193002300930023BE22124913484B
:10B3A000FFF7AEFD0390039B012B02D100F042FD9D
:10B3B0000390039B012B10D140230293029B83F344
:10B3C00011880B4B4FF0FF321A600A4B01221A60B2
:10B3D000094B00221A60FEF769FF00BF05B05DF857
:10B3E00004FB00BF909F002008FA0300EDB80200A4
:10B3F0008C9F0020789F0020709F0020034B1B68CB
:10B400000133024A136000BF704700BF949F0020C1
:10B4100000B585B00023039300230293FEF76CFF71
:10B42000394B1B68013B384A1360374B1B68002BB4
:10B4300062D1364B1B68002B5ED02EE0344BDB68AC
:10B44000DB680393039B18331846FEF752FE039BF9
:10B4500004331846FEF74DFE039BDB6A01229A4037
:10B460002C4B1B6813432B4A1360039BDA6A134669
:10B470009B0013449B00284A1A44039B043319463B
:10B480001046FEF7E3FD039BDA6A244B1B68DB6A78
:10B490009A4202D3224B01221A601D4B1B68002BDB
:10B4A000CCD1039B002B01D000F0B2FA1D4B1B68DE
:10B4B0000193019B002B10D000F04EF80346002BA7
:10B4C00002D0174B01221A60019B013B0193019BA3
:10B4D000002BF1D1134B00221A60114B1B68002B7B
:10B4E0000AD001230293104B4FF080525A6040BFA4
:10B4F000BFF34F8FBFF36F8FFEF70EFF029B18460F
:10B5000005B05DF804FB00BF949F00206C9F0020F5
:10B510002C9F0020749F0020989E0020949E002065
:10B52000809F00207C9F002000ED00E082B0034B54
:10B530001B680193019B184602B07047709F002062
:10B5400082B000230193034B1B680093009B1846B5
:10B5500002B07047709F002000B587B000230593AC
:10B56000454B1B68002B74D1444B1B68013304937B
:10B57000424A049B1360049B002B10D1404B1B6874
:10B580000393404B1B683E4A13603E4A039B136083
:10B590003D4B1B6801333C4A136000F039FA3B4BCA
:10B5A0001B68049A9A424DD3354B1B681B68002BCD
:10B5B00001D1012300E00023002B04D0334B4FF0D6
:10B5C000FF321A603EE02E4B1B68DB68DB6802939B
:10B5D000029B5B680193049A019B9A4203D22B4A17
:10B5E000019B13602EE0029B04331846FEF781FD99
:10B5F000029B9B6A002B04D0029B18331846FEF76F
:10B6000078FD029BDB6A01229A40214B1B681343A1
:10B610001F4A1360029BDA6A13469B0013449B0087
:10B620001C4A1A44029B043319461046FEF70EFDCD
:10B63000029BDA6A184B1B68DB6A9A42B4D3012377
:10B640000593B1E7154B1B68002B09D10AF02EFDBD
:10B6500006E0124B1B680133104A13600AF026FD06
:10B660000F4B1B68002B01D001230593059B184647
:10B6700007B05DF804FB00BF949F0020709F00207E
:10B68000249F0020289F0020849F00208C9F002062
:10B69000749F0020989E0020949E00207C9F002094
:10B6A000809F002082B0194B1B68002B03D0184BE1
:10B6B00001221A6026E0164B00221A60154B1B6807
:10B6C000B3FA83F3C3F11F030193019A13469B005E
:10B6D00013449B00104A13440093009B5B685A6814
:10B6E000009B5A60009B5A68009B08339A4204D121
:10B6F000009B5B685A68009B5A60009B5B68DB6834
:10B70000064A136000BF02B0704700BF949F00203C
:10B71000809F0020749F0020989E0020949E00200F
:10B7200000B583B001900091074B1B681833194690
:10B730000198FEF7AAFC0121009800F017FB00BF5A
:10B7400003B05DF804FB00BF949E002000B585B0F7
:10B750000390029101920A4B1B6818331946039813
:10B76000FEF774FC019B002B02D04FF0FF330293D5
:10B770000199029800F0FAFA00BF05B05DF804FBE9
:10B78000949E002000B585B00190019BDB68DB68CA
:10B790000293029B18331846FEF7ABFC1D4B1B6847
:10B7A000002B1CD1029B04331846FEF7A2FC029B1F
:10B7B000DB6A01229A40184B1B681343164A136038
:10B7C000029BDA6A13469B0013449B00134A1A44F7
:10B7D000029B043319461046FEF738FC05E0029B35
:10B7E000183319460E48FEF731FC029BDA6A0D4BFE
:10B7F0001B68DB6A9A4205D9012303930A4B012295
:10B800001A6001E000230393039B184605B05DF81E
:10B8100004FB00BF949F0020749F0020989E00208E
:10B820002C9F0020949E0020809F002082B00190D9
:10B83000054B1A68019B1A60044B1A68019B5A60F9
:10B8400000BF02B0704700BF849F0020709F00209F
:10B8500000B587B001900091FEF74EFD1D4B1B68AF
:10B860000493019B5B68049AD31A0393009B1B68A3
:10B87000B3F1FF3F02D10023059323E0019B1A6837
:10B88000154B1B689A4207D0019B5B68049A9A4249
:10B8900002D30123059315E0009B1B68039A9A428B
:10B8A0000BD2009B1A68039BD21A009B1A60019866
:10B8B000FFF7BCFF0023059304E0009B00221A6001
:10B8C00001230593FEF728FD059B184607B05DF898
:10B8D00004FB00BF709F0020849F0020024B0122C8
:10B8E0001A6000BF704700BF809F002000B583B082
:10B8F000019000F051F8074B1B68012BF9D9064B5A
:10B900004FF080525A6040BFBFF34F8FBFF36F8F2D
:10B91000EFE700BF989E002000ED00E000B583B087
:10B92000002301930CE0019A13469B0013449B00F3
:10B93000114A13441846FEF766FB019B013301933D
:10B94000019B042BEFD90D48FEF75DFB0C48FEF779
:10B950005AFB0C48FEF757FB0B48FEF754FB0B480D
:10B96000FEF751FB0A4B054A1A600A4B044A1A605B
:10B9700000BF03B05DF804FB989E0020FC9E0020F1
:10B98000109F00202C9F0020409F0020589F0020E7
:10B99000249F0020289F002000B583B019E0FEF707
:10B9A000ABFC104BDB68DB680193019B043318464A
:10B9B000FEF79FFB0C4B1B68013B0B4A13600B4BC4
:10B9C0001B68013B094A1360FEF7A6FC019800F0D2
:10B9D0000FF8064B1B68002BE1D100BF03B05DF8E8
:10B9E00004FB00BF409F00206C9F0020549F00205C
:10B9F00000B583B00190019B1B6B1846FEF7FEFA61
:10BA00000198FEF7FBFA00BF03B05DF804FB0000ED
:10BA100082B00D4B1B681B68002B01D1012300E095
:10BA20000023002B04D0094B4FF0FF321A6008E0CE
:10BA3000054B1B68DB68DB680193019B5B68034A6D
:10BA4000136000BF02B07047249F00208C9F00202D
:10BA500082B00A4B1B68002B02D10123019308E03E
:10BA6000074B1B68002B02D10223019301E0002346
:10BA70000193019B184602B0704700BF789F0020D9
:10BA8000949F002000B585B00190019B0293002394
:10BA90000393019B002B6ED0029BDA6A384B1B6824
:10BAA000DB6A9A425ED2029B9B69002B06DB344B19
:10BAB0001B68DB6AC3F10502029B9A61029B59690C
:10BAC000029BDA6A13469B0013449B002D4A1344E1
